:020000040800F2
:10000000B00700203502000819330008DD2E000873
:1000100015330008251400083933000800000000DB
:100020000000000000000000000000002133000874
:1000300029140008000000001D33000825330008C3
:100040004F0200084F0200084F0200084F0200084C
:100050004F0200084F0200084F0200084F0200083C
:100060004F0200084F0200084F0200084F0200082C
:100070004F0200084F0200084F0200084F0200081C
:100080004F0200084F0200084F0200084F0200080C
:100090004F0200084F0200084F0200084F020008FC
:1000A0004F0200084F0200084F0200084F020008EC
:1000B0002D3300084F0200084F0200084F020008CD
:1000C0004F0200084F0200084F0200084F020008CC
:1000D0004F0200084F0200084F0200084F020008BC
:1000E0004F0200084F0200084F02000800F002F81B
:1000F00000F090F80AA090E8000C82448344AAF132
:100100000107DA4501D100F085F8AFF2090EBAE82F
:100110000F0013F0010F18BFFB1A43F0010318473B
:100120007C4300009C430000103A24BF78C878C18B
:10013000FAD8520724BF30C830C144BF04680C60ED
:10014000704700000023002400250026103A28BF35
:1001500078C1FBD8520728BF30C148BF0B60704739
:100160006E2900F05B82702900F0AB85662904F0EF
:10017000F080652904F0ED80672904F0EA806129A8
:1001800004F0E98003681B0A28BF41F08001692957
:1001900000F00882642900F00582752900F00282CF
:1001A0006F2900F03985782900F07785E92900F07A
:1001B000D384E42900F0D084F52900F0CD84EF2920
:1001C00000F03685F82900F076850368DB0928BF42
:1001D00041F08001632900F0E987732900F0EE8780
:1001E000E32900F0F987F32900F0FE87002070472B
:1001F0001FB500F071FD04000020002104F080F81C
:10020000401C60600020002104F064F8E0601FBD25
:1002100010B510BD01F086F81146FFF7E9FF03F0B5
:1002200001FA01F0ADF803B4FFF7F2FF03BC01F0EF
:10023000F1F800000948804709480047FEE7FEE75B
:10024000FEE7FEE7FEE7FEE7FEE7FEE7FEE7FEE786
:1002500004480549054A064B704700002933000849
:10026000ED000008B0010020B0070020B00300201E
:10027000B00300201CB50C46064B7B446946009039
:10028000204600F0F2FB04460020694600F000FC26
:1002900020461CBD130800000FB41CB5084B06AA6D
:1002A0007B4469460090059800F0DFFB044600207F
:1002B000694600F0EDFB20461CBC5DF814FB000015
:1002C000ED0700002DE9F05F894604464FF0000A73
:1002D000DFF874B1FB44C0F820A02046E1688847ED
:1002E000002874D0252806D0D4E901219047206A3F
:1002F000401C2062F1E700265F462046E1688847FF
:100300002028054607DB312D05D2781910F8200C7E
:1003100008B10643F1E7B00701D526F00406C4F89A
:100320001CA00027C4F818A02A2D09D0284603F0E5
:10033000C9FF38B304EB8708303DC8F8185019E0FE
:1003400059F8041B204604EB87029161E168884755
:10035000012F054618D1E069002820DA26F0200692
:100360001DE0D8F8180000EB800005EB40003038A5
:10037000C8F818002046E1688847054603F0A2FF48
:100380000028EED1012F0AD02E2D08D12046E16899
:1003900088477F1C0546022F46F02006C4DBA06973
:1003A000002803DA404246F00106A061F00701D0C0
:1003B00026F010066C2D0BD0682D09D04C2D39D0AD
:1003C0006A2D35D0742D35D07A2D33D016E038E033
:1003D000E1682F4620468847B842054609D16C2F70
:1003E00026D04FF48060E1680643204688470546E2
:1003F00004E06C2F1AD04FF4807006430DB3A5F1C2
:100400004100192802D8203546F400664A4629469C
:10041000204626604E46FFF7A3FE80B101280BD090
:10042000F61D26F0070000F1080956E74020E4E732
:100430008020D8E70020D6E706F104094DE72846DA
:1004400052E7206ABDE8F09F8240000010B5431CCF
:1004500002E010F8011B71B18107FAD14FF00132AF
:1004600002C88C1A8C4314EAC211F9D0C01A0A06C9
:1004700003D0C01E10BDC01A10BD0A0401D0801EDA
:1004800010BD0902FCD0401E10BD4FF0000200B5A7
:10049000134694469646203922BFA0E80C50A0E8A7
:1004A0000C50B1F12001BFF4F7AF090728BFA0E855
:1004B0000C5048BF0CC05DF804EB890028BF40F821
:1004C000042B08BF704748BF20F8022B11F0804F63
:1004D00018BF00F8012B704770477047704770B520
:1004E000044685690068C10601D5302600E0202653
:1004F000C00707D070BDD4E9012130469047206A7B
:10050000401C20626D1EF6D570BD70B5044685692D
:100510000078C00707D170BDD4E9012120209047A1
:10052000206A401C20626D1EF6D570BD09684A0520
:1005300001D540B27047C905FCD500B270470968C3
:100540004A0501D5C0B27047C905FCD580B27047D5
:1005500070B50C460546012A05D02878800600D5DE
:10056000EA69002302E0012305E05B1C934202D20A
:10057000E05C0028F9D1A869E618C01AA861286AC9
:10058000184428622846FFF7AAFF04E0D5E90121B4
:1005900014F8010B9047B442F8D32846FFF7B5FF93
:1005A00070BD00002DE9F041064600241068752951
:1005B000314616A510D0FFF7B9FF002802DA4042F5
:1005C00013A507E031688A0701D512A502E04907A3
:1005D00004D511A5012401E0FFF7B1FF00210A2293
:1005E00006F1240709E0B0FBF2FCB0FBF2F302FBDA
:1005F0001C00303078541846491C0028F3D123469B
:100600002A463046BDE8F04100F0AFBB00000000D4
:100610002D0000002B00000020000000116802687F
:10062000006A530501D508700AE0D30501D508809A
:1006300006E0130603D5C217C1E9000200E0086016
:10064000012070472DE9FF4F0C461E464FF0FF3743
:100650008BB0D2E90001DDF860800A908A46C1F3D0
:100660000A5505B93D46002108464FF00000BAF191
:10067000000F00F4400005DA00EB80004FF4400169
:1006800001EA50004FEA9059B9F1010F00DDB94677
:100690000A9850EA4A000ED044F61050A5F2FF35F1
:1006A00045432F14B8F1000F1ED07542291E1EDDE0
:1006B000C9F100021CE0B8F1010F4FF0000001D0B9
:1006C000302103E0F24305E02154401CB042FBDB43
:1006D00030460022002121540B99C1F80880C1E95D
:1006E00000200FB0BDE8F08FBD1B6D1CDEE74A4651
:1006F00000DA694206A800F07BFD06AB93E807002C
:1007000003AB83E8070050460A9903F0FFF98DE830
:100710000700A0F500501F3800900398002D0ADD57
:1007200042F21F014A460844002303A90390684689
:1007300003F068FC09E0A0F500504A461F3800238A
:1007400003A90390684603F072FC8DE807000004DB
:10075000000C03D04FF0FF30410800E01046B8F124
:10076000000F03D00022009215461EE0751E05D42E
:1007700000F0B6FA303262556D1EF9D5B34601224B
:10078000084302D000227F1C04E02078302801D1E9
:1007900000227F1E002A099784D01DE0112D07DA60
:1007A00000F09EFA303262556D1C50EA0102F5D11C
:1007B000084302D00098C8B10EE00021681E05E091
:1007C000235C625C63542254401E491C8142F7DB67
:1007D000AB46A81B401E0990002004F80B000B98A4
:1007E000099AC0F80880C0E9002B7AE711264FF07B
:1007F000000857E72DE9F04F88460446D21D22F045
:10080000070191B0D1E90001CDE90A0103F046FDED
:1008100002460B98C00F01D02D2007E02068810709
:1008200001D52B2002E0202101EAC000032A099013
:1008300001D0072A05DB03464146204600F06CFC48
:100840000BE12078800601D5E06900E00620B8F1D0
:10085000650F814606D0B8F1660F18D0B8F1670F62
:1008600070D131E00020B9F1110F009001DB1123AC
:1008700001E009F101030AAA01A90CA8FFF7E2FEB1
:10088000DDE90C70002609F10105834647E00120EF
:100890004B4600904FF000470AAA01A90CA8FFF7A9
:1008A000D1FEDDE90DB00C995D46002610B909F1C5
:1008B00001000D18B9EB050003D4C0F1FF3609F1B2
:1008C0000105A5EB09002BE0B9F1010F01DA4FF0AA
:1008D00001090020B9F1110F0090484601DD1123F4
:1008E00000E003460AAA01A90CA8FFF7ABFEDDE968
:1008F0000C704D4600268346207800070AD4AB458D
:1009000000DA5D4601A8012D04DD411911F8011C32
:10091000302907D04F4502DA17F1040F04DA01201D
:1009200082460FE06D1EEEE7002F02DCED1B3E4419
:1009300003E0781CA84200DD7D1CB81B00F1010A11
:100940004FF000472078000703D4AA4501DB4FF0A1
:10095000FF3A0021B7F1004F0DF143088DF8431025
:1009600024D002202B23002F01DA7F422D230A21DD
:10097000021EA0F1010000DC5FB197FBF1FC97FBC8
:10098000F1F201FB1C7C17460CF1300C08F801CD8C
:10099000EEE7A8F1010003702188090501D5452182
:1009A00000E06521A0F1010800F8011C09980FA9D9
:1009B000A1EB0807FF1D00B10120411901EBEA700E
:1009C000A1693844081A401EA0612078C00602D4EC
:1009D0002046FFF784FD099828B1D4E9012190470A
:1009E000206A401C20622078C00622D52046FFF7EE
:1009F00076FD1EE0002E04DBB34502DD01A8805D1C
:100A000000E03020D4E901219047206A401C206298
:100A1000761CAAF101005FEA000A0AD100F05CF935
:100A2000C0680168405CD4E901219047206A401CFD
:100A30002062281EA5F10105DCDC07E0D4E90121D4
:100A400018F8010B9047206A401C2062381EA7F15D
:100A50000107F3DC2046FFF758FD032011B041E603
:100A600001694A1C02610878704700B58FB0CDE972
:100A700001310021059105497944CDE90310114662
:100A80006846FFF71FFC0FB000BD0000E5FFFFFF49
:100A90000A6802F8010B0A60704700002DE9FF5F49
:100AA00015468A460446DFF8AC80F8440027D8E9AA
:100AB00000103E46CDE9001010E03AF816106A46E4
:100AC00002A800F007FC411C07D02178890603D555
:100AD000E269391891420DD80744761C20788006C7
:100AE00002D5E069B84205DDAE42E6DB3AF8160011
:100AF0000028E2D1A069C01BA0612046FFF7EFFCEF
:100B0000D8E90010CDE90010002017E03AF81810DD
:100B10006A4602A800F0DEFBB0F1FF3F81460BD031
:100B200000250DF1080B05E0D4E901211BF80500B3
:100B300090476D1C4D45F7D308F10100B042804647
:100B4000E4DB206A384420622046FFF7DEFCBDE883
:100B5000FF9F0000BE3800002DE9F0418046D21D05
:100B600022F007020025D2E90002F52915A614D0CB
:100B7000011E72F1000106DA0023D0EB030063EBE3
:100B8000020211A608E0D8F800108B0701D50FA6C5
:100B900002E0490701D50EA601251146002408F1FF
:100BA000240704E000F09CF830323A55641C50EA07
:100BB0000102F7D12B46324621464046BDE8F041BE
:100BC00000F0D3B8000000002D0000002B00000052
:100BD0002000000030B4002100F1240408E002F0FD
:100BE0000705D208303542EA4372DB086554491CD8
:100BF00052EA0305F3D10468002310A2250708D5A3
:100C000004F020040C4304D0C46901230CA2641E28
:100C1000C46130BC00F0A9B810B504462146106884
:100C2000FFF78DFC02462046BDE810400023D1E7C7
:100C3000D21D22F00701D1E90023CBE7000000001C
:100C400030000000F0B40D460188090502D5214CA2
:100C50007C4402E01F4C7C440E34002100F1240649
:100C600008E002F00F071209E75D42EA03721B0970
:100C70007754491C52EA0307F3D102780023120784
:100C800004D5702D06D009B1022311342246F0BCE0
:100C900000F06BB801231034F8E770B504460D4638
:100CA00021461068FFF74BFC024629462046BDE866
:100CB00070400023C6E7D21D22F00703D3E90023CA
:100CC000C0E70368126843F0200303600823C36190
:100CD0000023B7E7203700000048704730000020AD
:100CE00030B5B0F10A0271F100034FEA900E4EEAFE
:100CF000817EB0EB0E0061EB91014FEA101E4EEACF
:100D0000017E10EB0E0041EB11114FEA102E4EEA5E
:100D1000016E10EB0E0041EB11214FEA104E4EEA2E
:100D2000014E10EB0E0041EB1141401841F1000162
:100D30004FEAD00040EA41704FEAD1014FEA810406
:100D400044EA907410EB800544EB01046D1944EB08
:100D50000404521BA3414FF0000348BF0A3200D5E0
:100D600030BD401C41F1000130BD2DE9F0470D467A
:100D700099469246044600F124080168880604D585
:100D8000E06921F01001216000E00120A84201DDAE
:100D9000471B00E00027A1697A1902EB0900081A35
:100DA000A0612078C00602D42046FFF798FB0026F9
:100DB00008E0D4E901211AF806009047206A401C97
:100DC000761C20624E45F4DB2078C0060AD520460A
:100DD000FFF785FB06E0D4E9012130209047206A27
:100DE000401C2062381EA7F10107F4DC07E0D4E9BB
:100DF000012118F805009047206A401C2062281E37
:100E0000A5F10105F3DC2046FFF77FFB2078000603
:100E100002D50220BDE8F0870120FBE72DE9F04F65
:100E200004460D46D21D22F0070089B0D0E9009794
:100E30004846394603F032FA0246F80F01D02D2316
:100E400007E02068810701D52B2302E0202101EA79
:100E5000C0038DF820300BB1012000E00020032AF0
:100E6000824601D0072A04DB2946204600F054F9C7
:100E70003FE12078800601D40D2500E0E569C7F345
:100E80000A560D2D49DA00214FEA175B08464FF04C
:100E90000000002F00F4400007DA00EB80004FF460
:100EA000400100EBD07001EA60008115012901DDED
:100EB0004FF0FF3100224FEA850CBCF1180F06D32A
:100EC0001346ACF118004FF08052C24003E04FF4DB
:100ED000801323FA0CF30CF10C0CBCF1200F04D39B
:100EE000ACF1200C09FA0CF001E007FA0CF0002933
:100EF0004FF0004801DD18B90FE00ED140450CD38A
:100F000019EB02095F4121B9404502D19F4329EA0B
:100F10000209BBEB175F00D0761C2088000502D5C4
:100F20007B48784402E07A487844193808AA30238C
:100F300002F80A30037C0AF10101002E0AF1020ACC
:100F400053546A4602DC4FF0300101E04FF03101AA
:100F50004FF001088DF8001002D0A6F2FF3603E032
:100F600059EA470100D06B4E002D02DC21780907B9
:100F700004D54FF002082E218DF80110C44600213F
:100F80000BE0C7F303433F01C35C491C6D1E02F82D
:100F90000830052908F1010801DA002DF1DC0021F3
:100FA0000CE000EB1973491C1B786D1E082902F830
:100FB00008304FEA091908F1010801DA002DF0DCC8
:100FC00021688B0602D516E0A8F10108E04505DD91
:100FD00002EB080313F8013C302BF5D0B8F1000FF9
:100FE00009DD02EB080313F8013C2E2B03D109079E
:100FF00001D4A8F10108002D05DD3E2102F80810FA
:101000006D1E08F10108407C002E02F8080008F16E
:10101000010804DA2D20764202F8080002E02B20B5
:1010200002F808000A214FF47A70864208F101089C
:101030000BDB96FBF0F3303302F8083096FBF0F34D
:1010400008F1010800FB136601E0642E0CDB64204C
:1010500096FBF0F3303302F8083096FBF0F308F11A
:10106000010800FB136601E00A2E06DB96FBF1F097
:10107000303002F8080008F1010896FBF1F001FB9E
:101080001060303002F80800A16908F1010808EB8F
:10109000050202EB0A00081AA0612078C00602D4FB
:1010A0002046FFF71CFA216A08AE01EB0A00206215
:1010B00004E0D4E9012116F8010B9047BAF1010AC6
:1010C000F7D22078C00602D52046FFF708FA6E4610
:1010D00009E016F8010B3E280FD0D4E90121904712
:1010E000206A401C2062B8F10108F2D22046FFF7C6
:1010F0000CFA09B00320BDE8F08F206A2844206272
:1011000003E0D4E90121302090476D1EEBD3F8E7CE
:101110008934000002FCFFFF2DE9F0411F46044620
:1011200003260168072A01F4006004DB08B116A554
:1011300005E016A503E008B115A500E015A521F00E
:1011400010002060A069C01EA0610FB1401EA06108
:101150002046FFF7C4F94FB1D4E901213846904742
:10116000206A401C2062C01C206206E0206AFAE768
:10117000D4E9012115F8010B9047761EF8D22046DC
:10118000FFF7C3F9BDE8F0814E414E006E616E007D
:10119000494E4600696E660010B5436913B1AFF35E
:1011A000008001E0FFF7D4F9012010BD127800F1B2
:1011B00024010A7000224A700122EDE711684FF005
:1011C000FF32E9E710B5436913B1AFF3008001E0E6
:1011D000FFF764FC012010BD128800F12401828415
:1011E0000022C2840122EDE711684FF0FF32E9E7E7
:1011F0002DE9F047814616468AB0354878440DC837
:101200008DE80D0032487844801C03AC0DC884E89A
:101210000D0041F69B300844372190FBF1F290FB22
:10122000F1F5A5F1800501FB12041B3C02D56442D7
:10123000012000E00020DFF898A080460027FA4453
:10124000AAF1BE0A0EE0E0070AD03246684607EB74
:10125000470101230AEB810102F0E9FE8DE8070056
:1012600064107F1C002CEED1194F7F44AE3F19E073
:10127000E80715D007EB04100DF1180A90E80E00EE
:101280008AE80E00C068F04201D1981908903246F1
:10129000012306A903A802F0CAFE03AB83E80700F6
:1012A0006D10641C002DE3D14FF0010332466946F6
:1012B000B8F1000F03A802D002F0A4FE01E002F092
:1012C000B6FEC9E90001C9F808200AB0BDE8F087F8
:1012D000403200002DE9F04116460C46054600F06C
:1012E00047F8036893F80101012807D0FF2C12D8B2
:1012F000185D80B101202C70BDE8F081D3F80701A2
:101300003246214603F20713C7182846BC46BDE8FB
:10131000F041002360474FF0FF30EDE70048704791
:10132000100000207546FFF7F9FFAE46050069463C
:10133000534620F00700854618B020B5FEF788FF19
:10134000BDE820404FF000064FF000074FF00008C6
:101350004FF0000BAC46ACE8C009ACE8C009ACE803
:10136000C009ACE8C00921F007018D4670470000B4
:1013700010B5FFF7B1FC001D10BD00BF852F0000A8
:1013800010B50446AFF300802046BDE81040FEF7DC
:101390004ABF00004FF0013C50F8042B51F8043BC9
:1013A0009A4221D1A2EB0C03934313EACC1317D139
:1013B00050F8042B51F8043B9A4215D1A2EB0C03D0
:1013C000934313EACC130BD150F8042B51F8043B90
:1013D0009A4209D1A2EB0C03934313EACC13DBD05E
:1013E0004FF00000704700BFD01A01BAB1FA81F186
:1013F00001F0180122FA01F0CB40DBB2C0B2C01AF2
:10140000C1F120012CFA01F3D11A914311EAC31161
:10141000E6D1704701491820ABBEFEE72600020066
:1014200070470000FEE70000704700000146C068FA
:1014300046F2676300F1010CC6F266638CFB03326F
:10144000931003EBD272085C02EB8202ACEB420217
:10145000CA6070470021C0E90311704702698154D6
:10146000016946F267620131C6F2666281FB0223BE
:101470009A1002EBD37202EB8202A1EB42010161EE
:1014800070470000D0E90310081AB0FA80F0400954
:1014900070470000B0B5044600F02AF9054640F256
:1014A0000000C2F200000078611C18BF044400BFB5
:1014B00000F01EF9401BA042FAD3B0BD2DE9F04F59
:1014C00082B00E68002E00F0038141F20042C4F2A7
:1014D0000102042340F2004E904208BF03234FF65E
:1014E000FF7CC4F2010E009300240123C1F2100C12
:1014F0004FF0000A4FF0000949E000BF012704F057
:101500000C030F229A402BEA020207FA03F34FEA78
:101510009A051A4346F82520D1F804B040F20C454C
:101520005FEACB22DEF8082054BF22EA080242EA32
:101530000802C4F20105CEF808202A685FEA8B236E
:1015400054BF22EA080242EA08022A605FEA8B33AB
:10155000DEF8042054BF22EA080242EA08025FEAE9
:10156000CB33CEF80420DEF800204FF0010354BF47
:1015700022EA080242EA0802CEF800200E680AF1C8
:10158000010A36FA0AF204F1040400F0A18003FA19
:101590000AF816EA080FF1D04E68664512DC122EE2
:1015A00056D8DFE806F0350B454955555555555584
:1015B000555555555555554D510000BFD1F80C9016
:1015C00046E000BF4FF6FF72C1F2210296420FDCE7
:1015D0000022C1F2110296421AD00022C1F2120278
:1015E000964215D00022C1F22102964210D02FE07F
:1015F0000022C1F2220296420AD00022C1F2310238
:10160000964205D00022C1F23202964220D100BF9C
:101610008A684AB1012A14BFC0F81480C0F810804B
:101620004FF0080914E000BF4FF0040910E000BFBC
:10163000CA6802F108090BE04FF0000908E000BF9A
:10164000CA6802F1040903E0CA6802F10C0900BF8C
:1016500022460646BAF1080F24BF203A04363768FE
:101660000F25954027EA050509FA02F22A43326060
:10167000CA79D2067FF582AF41F21803C4F20203A1
:101680001A68AEF57E7642F001021A601A6802F01E
:1016900001020192019A2AF0030256F802B040F6C4
:1016A0000002C4F20102904210D040F60042C4F29F
:1016B000010290423FF422AF41F20002C4F2010263
:1016C000009F904208BF022719E700BF002716E7D6
:1016D00002B0BDE8F08F00008068084018BF01200C
:1016E00070470000002A08BF09040161704700002C
:1016F00040F2A810C2F200000068704770B5B8B39D
:10170000044690F83D0028B9002084F83C002046AB
:1017100000F0A2FA242084F83D002068016821F03E
:1017200001010160016841F400410160016821F498
:101730000041016000F0F0FC48F28041C0F21E015F
:1017400040F60013D4F804E088424FF00001C0F2E4
:101750003D0348F2A16C4FF0000238BF01219842CE
:10176000C0F2010C38BF0122E64538BF0A460AB173
:10177000012070BD4DF68361C4F21B31A0FB011244
:101780002168950C4B684FF4967623F03F0343EAAB
:101790009243754344F6D3564B60C1F262060B6A1E
:1017A000A5FB0656B50923F03F03E64538BF950C67
:1017B0006A1C1A430A62CA6948F2A0664CF6FF73B3
:1017C000C0F20106B64522EA03020BD801384FEAFF
:1017D0004E03B0FBF3F001306FF31F30042898BFC5
:1017E00004201EE0A368013863B119230EFB03F344
:1017F000B0FBF3F001306FF31F3078B100F580409B
:1018000008E000BF0EEB4E03B0FBF3F001306FF3C6
:101810001F3028B100F5004003E000BF012000E0C8
:1018200001201043C8610868D4E9072320F0C000F4
:10183000104318430860886848F2FF3204F10C0630
:1018400090434CCE18431043A5698860C86820F0C7
:10185000FF0030432843C860086840F0010008607A
:1018600000202021206484F83D10206384F83E008D
:1018700070BD00002DE9F04F83B01E4692468846A9
:101880000446FFF735FF94F83D1020291CD121684C
:10189000054600BF8869800712D5FFF729FF401B66
:1018A00021681A28F6D388698007F3D50020202103
:1018B000206384F83D1084F83E00216C0226C2E0CB
:1018C00094F83C00012805D10226304603B0BDE85B
:1018D000F08F00BF4FF0010984F83C900868C00702
:1018E00003D1086840F0010008600868002720F470
:1018F00000600860242084F83D000020CFF6FF70CF
:101900002764E06208F0FE08BAF1010F88BFD146F3
:101910004FF0A00A4FF0200B04E000BF01374F4505
:1019200000F0A4800868002240F48070086020461F
:101930004FF001113346009501F032FB2168002879
:1019400056D1C1F81080FFF7D3FE21684B694A6970
:1019500094F83D50A02D054605D013F0020008BFB5
:1019600012F480601AD084F83DB048690A68800794
:1019700042F400720A6047D46FF48060486100BF8F
:1019800088698007CAD5FFF7B3FE401B21681A2873
:10199000F6D388698007F3D54CE000BFB6B100BF2D
:1019A000FFF7A6FE401BB04288BF84F83DA0216827
:1019B0004A69486994F83D30A02BD4D012F0020255
:1019C00008BF10F48060EBD0CDE700BFFFF790FEBA
:1019D00084F83DA021684A69486994F83D30A02BFD
:1019E000C1D012F00202BED110F48060EED0BAE78E
:1019F00008680326C00544BF4FF4007020643046D9
:101A000003B0BDE8F08F00BF00260296486902903F
:101A1000886902900298886901E000BF80698007A8
:101A20001AD5FFF765FE411B20681A29F6D3816994
:101A30008907F3D500202021206384F83D1084F825
:101A40003E00216C012641F02001216484F83C0015
:101A5000304603B0BDE8F08F202084F83D0084F8C4
:101A60003C60304603B0BDE8F08F00BF202084F812
:101A70003D000020012684F83C00304603B0BDE85C
:101A8000F08F00002DE9F04383B01E4617468946CB
:101A90000446FFF72DFE94F83D10202920D105467D
:101AA000206800BF8169890716D5FFF721FE411B19
:101AB00020681A29F6D381698907F3D500202021EF
:101AC000206384F83D1084F83E00216C41F0200131
:101AD000216484F83C0003E094F83C10012903D110
:101AE000022003B0BDE8F083012184F83C100168B6
:101AF000C90703D1016841F001010160016840F2AA
:101B0000020821F400610160212184F83D101021B8
:101B100084F83E100021216467626685618DC0F201
:101B200001082185A8F10211E162E16A0A9E11F51E
:101B3000803F18BF01291DD1016841F48071016007
:101B400020464FF0011100223346009501F028FA9B
:101B500050B120680068C00544BF4FF40070206495
:101B6000012003B0BDE8F0832069B0F5804F07D1B4
:101B7000FE2015E00829DFD0216B1229DCD0DFE739
:101B8000062000EAD9102168F030086108F106014A
:101B9000204632462B4601F0EDFA0028E0D1FF2026
:101BA000216800EA090008612046414632462B467A
:101BB00001F0E0FA0028D3D10020029020684169AA
:101BC000029180690290029806E000BF20463146EB
:101BD0002A4601F085F918BB208D68B320463146AE
:101BE0002A4601F037FBD8B9606A2168024612F82C
:101BF000013B0B616262628D013A6285228D531E48
:101C000023854F697F07E1D51B04DFD0437802307D
:101C10000B616062608D01386085901E2085D5E77C
:101C2000206C04289CD12068016841F40071016097
:101C3000012003B0BDE8F0832068016841F4007121
:101C40000160202084F83D00002084F83E0084F8E4
:101C50003C0003B0BDE8F08310B586B045F200410A
:101C60000068C4F2000100228842049202D006B04B
:101C700010BD00BF41F21804C4F20204206840F015
:101C800008002060206800F0080001900198C02042
:101C90000290122003900320059001F5384002A91C
:101CA000FFF70CFC606840F400106060606800F4AE
:101CB00000100190019806B010BD000040F2000035
:101CC00040F2A811C2F20000C2F2000100780A68D6
:101CD000104408607047000080B542F20000C4F272
:101CE0000200016841F010010160032000F08EF84D
:101CF0000F2000F005F800F027F8002080BD00005C
:101D000070B540F20006C2F2000640F208013278D7
:101D1000C2F200014FF47A730968B3FBF2F2044691
:101D2000B1FBF2F1084600F003FC0F2C4FF0010567
:101D300008D838B94FF0FF3021460022002500F0C6
:101D400039F87460284670BD82B041F21800C4F2C0
:101D500002000168022241F001010160016801F006
:101D6000010101910199416841F080514160406851
:101D700000F08050009000980420C4F20100016837
:101D800062F31A61016002B070470000002848BF8A
:101D90007047C1B200F01F00012202FA00F04EF2BB
:101DA0000012CEF2000242EAD10121F003010860E4
:101DB0007047000010B54EF60C5CCEF2000CDCF85B
:101DC0000030C3F3022E8EF00704042C28BF042435
:101DD000BEF103034FF0FF3E0EFA04F438BF0023B8
:101DE000A14399400EFA03F39A43114300F00F0206
:101DF00000F160430901043A03F56443624400289A
:101E000048BF02F10C03197010BD00004EF60C51D2
:101E1000CEF200010A684FF6FF031A4060F30A226F
:101E200042F0806040F0FD70086070474EF6105040
:101E3000CEF200000268012922F0040202600FBF06
:101E400030BF40BF20BF20BF704700002DE9F041E8
:101E500082B00446007841F21C06C007C4F20206B4
:101E60004AD0306810F0805808D1306840F0805077
:101E70003060306800F080500190019847F2000710
:101E8000C4F200073868C00512D4386840F4807086
:101E90003860FFF72DFC05463868C00508D4FFF709
:101EA00027FC401B6428F7D9032002B0BDE8F0816D
:101EB000706810F4407012D0616801F4407188427B
:101EC0000DD0706840F24042C4F24222012320F457
:101ED000407113600023C007136071602AD17068DD
:101EE000616820F440700843B8F1000F706003D1BE
:101EF000306820F0805030602068810707D556F8A0
:101F0000181CA26821F44041114346F8181CC00671
:101F100004D4002002B0BDE8F08100BF56F8180CD0
:101F2000E16820F48000084346F8180C002002B055
:101F3000BDE8F081FFF7DCFB054641F2883700BFC2
:101F400070688007CBD4FFF7D3FB401BB8424FF03B
:101F50000300F5D9EBE700002DE9F04381B000283C
:101F600000F0858042F20008C4F202080446D8F866
:101F700000000D4600F0070088420CD2D8F800009F
:101F800020F007002843C8F80000D8F8000000F04F
:101F90000700A8426BD1206841F204098107C4F20E
:101FA000020917D5410705D5D9F8001041F4E061C1
:101FB000C9F80010010705D5D9F8001041F46051A7
:101FC000C9F80010D9F80010A26821F0F0011143FF
:101FD000C9F80010C00741D1D8F8000000F0070090
:101FE000A8420CD9D8F8000020F007002843C8F810
:101FF0000000D8F8000000F00700A84237D12068A0
:10200000410707D5D9F80010E26821F4E0611143D7
:10201000C9F80010000708D5D9F80000216920F49C
:10202000605040EAC100C9F80000D9F8002002F071
:102030000C00082841F20020C0F27A0050D144F28E
:102040007243C2F38341C0F60003595CD2033BD410
:1020500040F60010C0F23D00484341E060680228AD
:102060000AD001282AD159F8041C890308D4012078
:1020700001B0BDE8F08300BF59F8041C8901F6D512
:10208000D9F8001021F003010843C9F80000FFF758
:102090002FFB064641F28837D9F80000616800F04E
:1020A0000C00B0EB810F97D0FFF722FB801BB842EA
:1020B000F2D9032001B0BDE8F08300BF59F8041C39
:1020C0008907D4D5DCE700BFD9F8002044F270437B
:1020D000C2F34042C0F600039A5C4843B0FBF2F002
:1020E000D9F8001044F25842C1F30311C0F60002BF
:1020F000515C40F2080220FA01F140F20400C2F201
:1021000000000068C2F200021160FFF7F9FD002034
:1021100001B0BDE8F083000040F2080041F2040184
:10212000C2F20000C4F202010068096844F2684289
:10213000C1F30221C0F60002515CC84070470000A4
:1021400040F2080041F20401C2F20000C4F20201B0
:102150000068096844F26842C1F3C221C0F6000277
:10216000515CC840704700002DE9F04182B0002862
:1021700068D00446007841F20006C007C4F20206A7
:1021800025D0706800F00C0004281BD0706800F0A7
:102190000C00082802D17068C00313D460680028BE
:1021A00000F06881B0F5A02F00F07C81B0F5803F91
:1021B00000F07C81306820F480303060306820F49A
:1021C000802076E13068800301D56068D0B3207844
:1021D000800718D5706810F00C0F07D0706800F0F9
:1021E0000C0008286ED17068C0036BD4306880077B
:1021F00002D52069012825D13068616920F0F800F6
:1022000040EAC1003060207800071FD420784007E2
:1022100032D4E56995B1706800F00C00082840F0F0
:102220008F80012D0ED07068216A00F480328A42BE
:1022300008D1616A00F47010884203D1002002B016
:10224000BDE8F081012002B0BDE8F081A06900285E
:1022500062D00020C4F242200121C0F88014FFF7B0
:1022600047FA0546706A800700F18C80FFF740FA54
:10227000401B0228F6D92AE1F06910F0805808D1F5
:10228000F06940F08050F061F06900F080500090FB
:10229000009847F20007C4F200073868C00529D447
:1022A000386840F480703860FFF722FA054600BFB6
:1022B0003868C0051ED4FFF71BFA401B6428F7D905
:1022C00005E100BF2069002840F20000C4F242206E
:1022D00000F0828001210160FFF70AFA054600BF85
:1022E000306880073FF588AFFFF702FA401B0228ED
:1022F000F6D9ECE0E068002800F08080052800F0C6
:102300009780012800F09880306A20F00100306248
:10231000306A20F0040092E00020C4F24220002144
:10232000C0F88014FFF7E4F9054600BF706A800723
:102330007FF56CAFFFF7DCF9401B0228F6D9C6E049
:102340000027C4F2422700203866FFF7D1F9022D9A
:1023500005460BD13068800140F1BE80FFF7C8F917
:10236000401B02284FF00300F4D968E73068800171
:102370007FF564AFFFF7BCF9401B02284FF0030064
:10238000F4D95CE740F20800C2F20000006844F6AD
:10239000D351C1F26201A0FB0101480A019000BFC4
:1023A00000BF0198411E002801913FF42FAF00BFEC
:1023B0000198411E002801913FF428AF00BF019809
:1023C000411E002801913FF421AF00BF0198411E3A
:1023D00000280191E4D119E700210160FFF788F995
:1023E000054600BF306880077FF50DAFFFF780F925
:1023F000401B02284FF00300F4D920E7306A20F098
:1024000001003062306A20F004003062FFF770F99A
:10241000054641F2883700BF306A800720D5FFF7B4
:1024200067F9401BB8424FF00300F5D907E700BF3A
:10243000306A40F004003062306A40F001003062DF
:10244000FFF756F9054641F2883700BF306A80072A
:1024500006D4FFF74DF9401BB842F7D937E000BF6B
:10246000B8F1000F7FF4D5AEF06920F08050F06134
:10247000CFE600BF306820F480303060306820F450
:1024800080203060FFF734F9054600BF30688003D4
:102490007FF59DAEFFF72CF9401B64284FF0030039
:1024A000F4D9CCE6306840F480203060306840F4E5
:1024B00080303060FFF71CF9054600BF30688003AC
:1024C0003FF585AEFFF714F9401B6428F6D90320C9
:1024D00002B0BDE8F08100BF206AB0F5803F05D1B1
:1024E0007168A26821F40031114371607168626AF9
:1024F00021F4741111430843706001203866FFF71E
:10250000F7F80446306880013FF598AEFFF7F0F821
:10251000001B02284FF00300F4D990E64EF21000A1
:10252000CEF20000016841F0020101607047000036
:10253000411E0020B0EB116F1CBF012070474EF20E
:102540001002CEF2000251604EF62351CEF200018D
:10255000F0230B7007219060116070474EF210005D
:10256000CEF20000016821F0020101607047000016
:10257000704700007047000010B590F83C20012A19
:102580004FF0020233D080F83D200268D2F804E018
:10259000D2F808C00C682EF07003234340F2FF7499
:1025A000C4F20004A24253600ADCB2F1804F13D09F
:1025B00040F20043C4F200039A420DD011E000BF84
:1025C00042F60043C4F201039A4205D040F60003EC
:1025D000C4F200039A4204D149682CF080031943E5
:1025E00091600121002280F83D1080F83C201046C7
:1025F00010BD0000002804BF0120704710B504463C
:1026000090F83D0028B9002084F83C00204600F0F6
:1026100067F8022084F83D00206840F2FF730268EA
:10262000C4F2000342F6004C9842C4F2010C15DCDF
:10263000B0F1804F1AD040F20041C4F2000188424C
:1026400014D0984218DCB0F1804F1DD040F2004108
:10265000C4F20001884217D01AE000BF604505D0DF
:1026600040F60001C4F200018842EAD1A16822F0DC
:1026700070020A439842E6DD604505D040F600014D
:10268000C4F20001884203D1216922F440720A4356
:10269000A36922F08001D4F804E0E26819436045A0
:1026A0000160C262C0F828E002D16169CCF8301044
:1026B00001214161002084F8461084F83E1084F81E
:1026C0003F1084F8401084F8411084F8421084F8D8
:1026D000431084F8441084F8451084F83D1010BD70
:1026E00080B582B00068B0F1804F15D042F600414D
:1026F000C4F2010188420CD141F21800C4F2020078
:10270000016841F400610160006800F4006001901C
:10271000019802B080BD00BF41F21800C4F202006F
:102720004168002241F0010141604068012100F050
:102730000100009000981C20FFF73CFB1C2002B019
:10274000BDE88040FFF722BB90F83D1001291CBF77
:1027500001207047022180F83D10006840F2FF71AF
:10276000C4F20001884209DCB0F1804F12D040F27F
:102770000041C4F2000188420CD012E042F6004150
:10278000C4F20101884205D040F60001C4F2000104
:10279000884206D1816801F00701062904BF0020A4
:1027A0007047016841F0010101600020704700009E
:1027B0000146006841F21113026A1A4204D0012254
:1027C000002081F83D207047026A40F244431A42DB
:1027D000F5D1026822F0010202600122002081F896
:1027E0003D20704780B590F83C20012A4FF002024E
:1027F00000F0C28080F83D20D0F800C04FF677721C
:10280000DCF8083023EA0202CCF808200B684F2BD2
:1028100028DC1F2B44DD202B45D0302B43D0402B10
:1028200040F0AC80D1F804E0C968DCF82030DCF876
:10283000202022F00102CCF82020DCF8182022F021
:10284000F00242EA011123F00A0242EA0E02CCF839
:102850001810CCF82020DCF8081041F0470121F0D6
:10286000300180E06F2B27DDB3F5005F48D0B3F572
:10287000805F7AD0702B40F08180D1E901E3C96894
:10288000DCF8082043EA0E0322F47F4243EA0121E8
:102890001143CCF80810DCF8081041F0770162E031
:1028A0000BB1102B6AD1DCF8081021F0700119432C
:1028B00041F0070157E000BF502B35D0602B5DD1B0
:1028C000D1F804E0C968DCF82030DCF8202022F0E0
:1028D0001002CCF82020DCF8182022F4704242EAE2
:1028E000013123F0A00242EA0E12CCF81810CCF805
:1028F0002020DCF8081041F0670121F0100132E0DF
:10290000D1E901E3C968DCF8082043EA0E0322F4A8
:102910007F4243EA01211143CCF80810DCF808108B
:1029200041F480411FE000BFD1F804E0C968DCF841
:102930002030DCF8202022F00102CCF82020DCF846
:10294000182022F0F00242EA011123F00A0242EAC2
:102950000E02CCF81810CCF82020DCF8081041F05A
:10296000570121F02001CCF808100022012180F845
:102970003D10002180F83C10104680BD0122F5E793
:102980007047000010B5016804460869800744BF1D
:10299000C8685FEA807039D40869400744BFC868D6
:1029A0005FEA40703ED40869000744BFC8685FEA28
:1029B000007045D40869C00644BFC8685FEAC060BB
:1029C0004AD40869C0071CBFC8685FEAC07051D10B
:1029D0000869000644BFC8685FEA006052D408690D
:1029E000400644BFC8685FEA406053D40869800667
:1029F00046BFC8685FEA806010BD6FF020022046C5
:102A00000A61BDE81040FFF7B5BD00BF6FF00200DE
:102A10000861012020778869800743D02046FFF7AE
:102A2000AFFF45E06FF0040008610220207788695D
:102A300010F4407F40D02046FFF7A2FF42E000BFE5
:102A40006FF00800086104202077C86980073DD036
:102A50002046FFF795FF3FE06FF010000861082067
:102A60002077C86910F4407F3AD02046FFF788FFEE
:102A70003CE000BF6FF001000861204600F03EF826
:102A80002168A5E76FF0800008612046FFF770FD20
:102A90002168A4E76FF040000861204600F030F89C
:102AA0002168A3E7204600F025F8204600F024F82E
:102AB0002168002020776FE7204600F01BF82046B1
:102AC00000F01AF82168002020776CE7204600F01B
:102AD00011F8204600F010F821680020207769E7FF
:102AE000204600F007F8204600F006F82168002094
:102AF000207766E7704700007047000070470000CD
:102B000070470000002804BF0120704710B504463C
:102B100090F8410028B9002084F84000204600F0D9
:102B200063F8242084F841002068D4E90212C368C5
:102B300023F40053C360036923F440531A43026132
:102B4000D4E904231143C268194341F20C639A4348
:102B50001143C1604169A26921F44071114343F6F8
:102B60000002C4F201029042416103D0FFF7D4FA9F
:102B700002E000BFFFF7E4FA6268192148439100C0
:102B8000B0FBF1F048F21F51C5F2EB11A0FB01239D
:102B90005A094FF69C73C0F6FF7302FB0300322301
:102BA00003EB0010A0FB0101F02303EA511320689E
:102BB00003EB0212C1F3431111448160016921F456
:102BC00090410161416921F02A014161C16841F4EC
:102BD0000051C16000202021606484F8411084F815
:102BE0004210606310BD000070B586B040F600046E
:102BF000C4F20104006804F540510026884204969E
:102C000002D006B070BD00BF41F21800C4F202004D
:102C1000016802AD41F480410160016801F4804126
:102C200001910199016841F00401016000682946A1
:102C300000F00400019001984FF40070029002200F
:102C40000390032005902046FEF738FC4FF4806087
:102C5000CDE90206204629460496FEF72FFC06B071
:102C600070BD00002DE9F04381B0044690F84100AA
:102C7000202840F0B180884600294FF0010000F084
:102C8000D6801646002A00F0D28000206064212001
:102C90001D4684F84100FEF72BFDA684E684A1685A
:102CA0000646B1F5805F03D12069002800F09880C6
:102CB00047464FF00008E18C2068002900F096801C
:102CC00005F101090BE000BF47B317F8011B416094
:102CD000E18C0139E184E18C002900F087800168F2
:102CE0000906F1D4B9F1000F0AD0EDB1FEF700FDED
:102CF000801BA84218D8206801680906F6D5E3E7CA
:102D000001680906E0D4016809065CBF01685FEA52
:102D10000161D9D401680906F2D5D5E738F8021B5C
:102D200000276FF35F21D2E7206850E8030F216886
:102D300020F4D07041E80302BAB3206850E8030FD2
:102D4000216820F4D07041E8030272B3206850E893
:102D5000030F216820F4D07041E803022AB32068F1
:102D600050E8030F216820F4D07041E80302002AE4
:102D7000DAD11AE0206850E8050F216820F0010040
:102D800041E80502DAB1206850E8050F216820F01B
:102D9000010041E8050292B1206850E8050F216862
:102DA00020F0010041E805024AB1206850E8050F13
:102DB000216820F0010041E80502002ADAD1202034
:102DC00084F8410084F84200002084F84000032089
:102DD00001B0BDE8F08300BF022001B0BDE8F08380
:102DE0000027E18C206800297FF46AAF016849065A
:102DF00019D4FDB1691C0DD10168490613D40168CD
:102E000049065CBF01685FEA41610CD4016849066C
:102E1000F2D508E0FEF76CFC801BA8420AD82068B7
:102E200000684006F6D5202084F84100002001B05B
:102E3000BDE8F083206850E8030F216820F4D070CB
:102E400041E80302002A3ED0206850E8030F2168C1
:102E500020F4D07041E80302AAB3206850E8030FC1
:102E6000216820F4D07041E8030262B3206850E882
:102E7000030F216820F4D07041E80302002AD9D161
:102E800021E000BF206850E8050F216820F0010014
:102E900041E80502002A3FF492AF206850E8050F90
:102EA000216820F0010041E80502002A3FF487AFC5
:102EB000206850E8050F216820F0010041E8050274
:102EC000002A3FF47CAF206850E8050F216820F00D
:102ED000010041E80502002AD4D170E7FEE70000B6
:102EE00070B50368044653F8140F400711D40E461A
:102EF000481C29D086BB00BF1868400527D4FEF7C0
:102F0000F7FB236853F8140F400739D518684007BA
:102F1000F2D5002070BD00BF18684007F9D41868CA
:102F2000400514D418684007F3D4186840050ED43F
:102F300018684007EDD41868400508D418684007A1
:102F40004FF0000048BF70BD18684005E4D56FF42D
:102F500080601860042014E0154603E053F8140F55
:102F60004007D6D418684005F1D4FEF7C1FB401BDA
:102F70002368B042F2D958694007EFD4202000E01E
:102F8000202000212022216384F83D2084F83E1077
:102F9000226C10432064012084F83C1070BD0000B6
:102FA0002DE9F041054600681E46144601F47F02F3
:102FB00001338FB242D0DDF81880B2F5803F40F087
:102FC000878040693840C01BB0FA80F04009A042B9
:102FD00040F0C8804EB924E040693840C01BB0FAC8
:102FE00080F04009A04240F0BD80FEF781FBA0EBDD
:102FF00008012868B142EFD941693940C91BB1FACB
:1030000081F14909A142E7D19BE000BF4069384006
:10301000C01BB0FA80F04009A0424FF0000040F021
:10302000A680FEF765FB286841693940C91BB1FAE3
:1030300081F14909A142E9D183E000BFB2F5803FA7
:1030400024D100BF41693940C91BB1FA81F1490956
:10305000A14240F0878041693940C91BB1FA81F132
:103060004909A14240F07E8041693940C91BB1FA4B
:1030700081F14909A14275D141693940C91BB1FAB1
:1030800081F14909A142DDD06CE000BF816939407E
:10309000C91BB1FA81F14909A14263D18169394063
:1030A000C91BB1FA81F14909A1425BD1816939405B
:1030B000C91BB1FA81F14909A14253D18169394053
:1030C000C91BB1FA81F14909A142DFD04AE000BF32
:1030D00080693840C01BB0FA80F04009A04241D15D
:1030E00046B923E080693840C01BB0FA80F040093F
:1030F000A0423BD1FEF7FCFAA0EB08012868B142E0
:10310000F0D981693940C91BB1FA81F14909A1425D
:10311000E8D116E080693840C01BB0FA80F0400961
:10312000A0424FF0000018BFBDE8F081FEF7E0FAC2
:10313000286881693940C91BB1FA81F14909A14266
:10314000E8D100202021286385F83D1085F83E0055
:10315000296C41F02001296485F83C000120BDE87C
:10316000F08100BF0020BDE8F08100BF0020BDE875
:10317000F0810000F0B581B0044600681D46436947
:103180008FB203EA0701B94202D1002001B0F0BDBD
:1031900041691646013201F4806125D0002940D1F1
:1031A000CEB100BFFEF7A4FA411B2068B14203D99B
:1031B00041693940B9424BD141693940B942E4D003
:1031C00041694905EED52CE041693940B942DCD06E
:1031D0004169490525D4FEF78BFA206841693940D9
:1031E000B942F1D0202024E0D9B941693940B9422F
:1031F000CBD04169490514D441693940B942C4D0A2
:10320000416949050DD441693940B942BDD0416990
:10321000490506D441693940B942B6D041694905EA
:10322000E3D5016841F4007101606FF48061416190
:10323000042000212022216384F83D2084F83E10E0
:10324000226C1043206484F83C10012001B0F0BDD2
:103250002020EEE770B50368044653F8140F00060B
:1032600011D40E46481C29D086BB00BF1868400503
:1032700027D4FEF73DFA236853F8140F000639D51A
:1032800018680006F2D5002070BD00BF186800065F
:10329000F9D41868400514D418680006F3D41868E7
:1032A00040050ED418680006EDD41868400508D40F
:1032B000186800064FF0000048BF70BD1868400550
:1032C000E4D56FF480601860042014E0154603E034
:1032D00053F8140F0006D6D418684005F1D4FEF751
:1032E00007FA401B2368B042F2D958690006EFD4B0
:1032F000202000E0202000212022216384F83D20AE
:1033000084F83E10226C10432064012084F83C10A5
:1033100070BD0000FEE70000FEE7000070470000FF
:1033200070470000FEF7CABC7047000040F218105A
:10333000C2F20000FFF726BBFEE70000B0B540F286
:103340007005C2F2000505F138000221FEF786F88B
:10335000287D00F0EBFF0B4605F1180444F2844190
:103360000246C0F600012046FCF796FF687D00F09B
:10337000DDFF0B46283544F28E410246C0F60001BF
:103380002846FCF789FF00F041F800F00FF82046CE
:1033900000F000F900F022F82846BDE8B04000F047
:1033A000F9B80000816002608380704780B582B008
:1033B00040F2BC0148F68C02C2F20001C0F60C02D9
:1033C0004868097801924FF0C80C01AA0423CDF88F
:1033D00000C0FEF757FB02B080BD000080B582B090
:1033E00040F2BC014CF6CC02C2F20001C0F60C0265
:1033F0004868097801924FF0C80C01AA0423CDF85F
:1034000000C0FEF73FFB02B080BD000080B582B077
:1034100040F2BC0140F60C02C2F20001C1F61C02EF
:103420004868097801924FF0C80C01AA0423CDF82E
:1034300000C0FEF727FB0320FEF72CF802B080BD8A
:10344000F0B583B004463220FEF724F840F2BC0504
:10345000C2F2000520464E2105224FF4FA736C603B
:103460004E24FEF707FA68B168687E2105224FF402
:10347000FA737E24FEF7FEF920B10024204603B043
:10348000F0BD00BF2D202C70FEF704F843F63C077A
:1034900068682978C0F60C07C82602AA0423029798
:1034A0000096FEF7EFFA0520FDF7F4FF686829782B
:1034B00002AA042302970096FEF7E4FA01200124F1
:1034C000FDF7E8FF6868297802AA042302970096AE
:1034D000FEF7D8FA0820FDF7DDFF42F62C02C0F611
:1034E0000C0268682978029202AA04230096FEF76B
:1034F000C9FA0820FDF7CEFF42F62C02C8F68C026E
:1035000068682978029202AA04230096FEF7BAFAA4
:103510000120FDF7BFFF40F60C02C8F68C02686878
:103520002978029202AA04230096FEF7ABFA012042
:10353000FDF7B0FF40F60C02C1F61C02686829785E
:10354000029202AA04230096FEF79CFA0320FDF7DC
:10355000A1FF40F60C02C6F66C0268682978029258
:1035600002AA04230096FEF78DFA0120FDF792FFD0
:1035700040F60C02CCF6CC0268682978029202AAC6
:1035800004230096FEF77EFA0320FDF783FF204612
:1035900003B0F0BD83B02DE9F04388B005460FA815
:1035A00002AC0EC00FAA204629460192FCF762FE2B
:1035B0009DF8080080B340F2BC064FF0FF35C2F220
:1035C00000064FF0C8080DF11C0900BF60194078D3
:1035D0000423010120F00F0000F10D0209308DF8E5
:1035E0001D0001F10D008DF81C208DF81E0001F169
:1035F0000902706831788DF81F204A466F1CCDF89B
:103600000080FEF73FFA2046FCF720FF0E2F03D87C
:10361000A91C88423D46D9D808B0BDE8F04303B0A4
:103620007047000094B0FEF757FB0AAC201D242120
:10363000FCF72BFF02200A9001200E90102000259D
:103640000F9020460395CDE901551195FEF78CFDAD
:1036500020B1EFF3108072B6FEE700BF0F20CDE976
:10366000040504A80021CDE906550895FEF774FC71
:1036700020B1EFF3108072B6FEE700BF02260025EE
:10368000684600960295FEF7E1FB28B1EFF3108043
:1036900072B600BFFEE700BF41F21800C4F202009C
:1036A000016841F2000441F0100101600168C4F2B8
:1036B000010401F010010A910A990168002241F009
:1036C0002001016001684FF4005701F020010A91C8
:1036D0000A99016841F004010160016801F00401E8
:1036E0000A910A99016841F00801016000684FF4ED
:1036F000005100F008000A900A982046FDF7F2FFFA
:1037000001200BA961C10AA920460A97FDF7D6FE40
:1037100040F2C400A4F53C41C2F2000048F2A062AD
:103720004FF48043C0F2010280E82600C0E9035351
:10373000C0E90555C0E90755FDF7E0FF20B1EFF3FB
:10374000108072B6FEE700BF40F2601004F5205111
:10375000C2F2000000250C234FF4E13280E826007D
:10376000C0E90355C0E90535C561FFF7CBF928B1BC
:10377000EFF3108072B600BFFEE700BF40F21810F2
:10378000C2F200004FF080414FF6FE730D95CDE977
:103790000B55CDE90455472280E82600C0E90335E2
:1037A0008561FEF727FF28B1EFF3108072B600BFE6
:1037B000FEE700BF4FF480500A9040F21810C2F2AA
:1037C00000000AA9FFF70EF820B1EFF3108072B6DF
:1037D000FEE700BF40F21810C2F2000004A9FEF795
:1037E000CBFE28B1EFF3108072B600BFFEE700BF3A
:1037F00040F27006C2F2000606F138052846FDF7D1
:1038000029FE4FF480703087022086F83A0040F29B
:10381000C400C2F20000FFF713FE4FF4FA70FEF787
:1038200087FE40F2181106F10800C2F2000122469C
:103830004FF40053FFF7B6FD40F20C04C2F200044F
:1038400012A707E0FEF78AFE00200121FEF7EEFA3C
:10385000FEF764FEFDF74CFF21687060B0FBF1F2EB
:1038600002FB110119B128460021FDF7F7FD28469A
:10387000FDF708FE0028E5D1307857F82000804792
:103880002846FDF7D3FD3070E4E700BF653A000835
:103890003D330008853A00082DE9F0418AB004461E
:1038A0008088002600900120019020680325694649
:1038B00002960395FDF702FE2068A1880022FDF71D
:1038C00011FF1220FDF7E6FDEFF3108072B6A0683D
:1038D000FEF73AFFA0880395CDE9000620686D4603
:1038E00029460296FDF7EAFDA0680068466200BF1F
:1038F0002068A188FDF7F0FEA1680128096809D1B8
:10390000486A80B2B0F5FA7FF2D962B600200AB0F8
:10391000BDE8F081002048622068A188FDF7DCFE48
:10392000A16809684A6A48B990B2B0F5FA7FF3D93C
:1039300062B600200AB0BDE8F08100BF00204862F6
:103940002068A188FDF7C8FEA16801280A68516AAD
:1039500008D188B2B0F5FA7FF2D962B600200AB079
:10396000BDE8F0814FF0000800270026C2F824804F
:103970002068A188FDF7B0FEA168096830B9486ADF
:1039800080B2B0F5FA7FF3D960E000BFC1F82480BF
:103990002068A188FDF7A0FEA16801280A68536A83
:1039A00098B203D1B0F5FA7FF2D955E0A0F1150332
:1039B0003D38132838BF0126092B38BF0026EE55A5
:1039C0000137282FD2D10846FEF7F2FE62B69DF8E5
:1039D00001009DF802109DF803209DF8043001EBD2
:1039E000400002EB40009DF8051003EB400001EBA6
:1039F00040009DF806109DF811209DF8123001EB53
:103A0000400003EB42019DF813209DF8143002EBB7
:103A100041019DF8152003EB41019DF8163002EBA2
:103A2000410103EB41019DF817209DF8073002EB9F
:103A3000410103EB400000F07F0001F07F012173A2
:103A4000607301200AB0BDE8F08100BF62B60020BB
:103A50000AB0BDE8F08100BF62B600200AB0BDE840
:103A6000F081000010B540F27004C2F2000404F1CD
:103A700038000121FDF7F2FC04F10800BDE8104018
:103A8000FFF70ABF70B540F27004C2F20004207D57
:103A900000F04CFC0B4604F1180544F28441024648
:103AA000C0F600012846FCF7F7FB607D00F03EFC05
:103AB0000B46283444F28E410246C0F600012046EF
:103AC000FCF7EAFB40F26016C2F2000630462946D7
:103AD00010224FF47A73FFF7C5F844F28245C0F61E
:103AE00000053046294602226423FFF7BBF8304622
:103AF000214610224FF47A73FFF7B4F83046294676
:103B000002226423BDE87040FFF7ACB85FEA400CC6
:103B100008BF91F0000F4FEA8C234FEAC12243EA1D
:103B200051514FEA1C5018BF00F5F0404FEA3000E9
:103B300018BF41F000415FEA6C5C00F02980BCF1E5
:103B4000FF3F08BF40F080407047130C06BF1204CF
:103B50004FF0100C4FF0000C130E04BF12020CF1CA
:103B6000080C130F04BF12010CF1040C930F04BFD7
:103B700092000CF1020CD30F04BF52000CF1010CA7
:103B800011464FF00002A0F11F00A0EB0C0070479F
:103B900011F0004F08BF704731F000413FF4D5AF3E
:103BA0000B0C06BF09044FF0100C4FF0000C0B0E6D
:103BB00004BF09020CF1080C0B0F04BF09010CF142
:103BC000040C8B0F04BF89000CF1020CCB0F04BF57
:103BD00049000CF1010CCCF1200322FA03F341EA75
:103BE000030102FA0CF2A0EB0C0000F10100704797
:103BF00023F07F4720F07F4C80EA030000F0004074
:103C0000ACEB070303F57C5303F1FF032DE9804977
:103C100009B44FEA144324EA03484FEA154B25EA56
:103C20000B4E0FF2042606EB13273E7803FB0667C4
:103C3000C7F5000707FB06F64FEAD64606F102066F
:103C40004FEA543707FB066CCCF1005C4FEA1C4787
:103C50002CEA074C0CFB06F507FB06F404EB1546B3
:103C60004FEA961649085FEA320234BF00204FF04F
:103C700000404FEAD13706FB07FC4FEA1C4C0CFB17
:103C80000BF7D21B03FB0CF761EB07010CFB0EF7E4
:103C9000B0EB074072EB17420CFB08F734BFA2EB06
:103CA0000742B2EB074261EB17414FEA0C444FEA7F
:103CB000910706FB07FC4FEA1C4C0CFB0BF7B0EB23
:103CC000C74072EB573203FB0CF734BFA2EBC7427D
:103CD000B2EBC74261EB57310CFB0EF7B0EBC700FC
:103CE00072EB57720CFB08F734BFA2EBC702B2EBC2
:103CF000C70261EB57714FEA816141EA92114FEAC5
:103D0000826242EA90124FEA806004EBCC04039F87
:103D10004FEAD13706FB07FC4FEA1C4C0CFB0BF7B4
:103D2000D21B03FB0CF761EB07010CFB0EF7B0EBAA
:103D3000074072EB17420CFB08F734BFA2EB0742B7
:103D4000B2EB074261EB17414FEA8C5504EB9C2420
:103D50004FEA910706FB07FC4FEA1C4C0CFB0BF7E4
:103D6000B0EBC74072EB573203FB0CF734BFA2EB4A
:103D7000C742B2EBC74261EB57310CFB0EF7B0EB19
:103D8000C70072EB57720CFB08F734BFA2EBC702F7
:103D9000B2EBC70261EB57714FEA816141EA9211C0
:103DA0004FEA826242EA90124FEA806015EB4C259E
:103DB00044F100044FEAD13706FB07FC4FEA1C4CE4
:103DC0000CFB0BF7D21B03FB0CF761EB07010CFBA1
:103DD0000EF7B0EB074072EB17420CFB08F734BF4D
:103DE000A2EB0742B2EB074261EB17414FEA813188
:103DF00041EA92414FEA823242EA90424FEA8030F1
:103E00004FEA0C7615EB1C1544F1000448EA034315
:103E10004EEA0B484FF0000EB2EB080C71EB0307B3
:103E200024BF624639464EEB0E0E4FF0000B0018D1
:103E3000524149414BEB0B0BB2EB080C71EB030702
:103E40007BF1000B24BF624639464EEB0E0E4FF05D
:103E5000000B0018524149414BEB0B0BB2EB080C25
:103E600071EB03077BF1000B24BF624639464EEB32
:103E70000E0E51EA020718BF46F0010616EB0E7649
:103E800055F1000254F1000103D5BDE88901BDE8F8
:103E90000088BDE88901BDE80048B619524141EBF0
:103EA0000101A3F10103704780807F7E7D7C7B7AD6
:103EB0007978777676757473727171706F6E6E6DD6
:103EC0006C6C6B6A6A69686867666665646463637C
:103ED00062616160605F5F5E5E5D5D5C5C5B5B5A02
:103EE0005A5959585857575656555555545453536F
:103EF00052525251515050504F4F4F4E4E4D4D4DCA
:103F00004C4C4C4B4B4B4A4A4A4949494848484714
:103F10004747474646464545454444444443434352
:103F200043424242424141419C46002B30D47700FB
:103F30002BD04FEA37071CB503B44FF010004FF0F9
:103F40001001BAF1000F06D0BCF1000FDCBF40F049
:103F5000080040F008014FF000000FBCBDE8104021
:103F60000BF1010BBBF1010F08BF5FEA170722BF7E
:103F700012F1010211F101014FF0004143F1000380
:103F800000F0004043EA00007047F9D35708D0E73B
:103F900046EA06464FEA164613F1400F1FDD13F1BD
:103FA000200FDFBF16430A46002120335B42BED0FC
:103FB000C3F1200746EA06464FEA164602FA07F71B
:103FC00046EA070622FA03F2C3F1200701FA07F7CF
:103FD00042EA070221FA03F14FF00003A7E746EA9D
:103FE000020646EA06464FEA164646EA0106BCBF06
:103FF00046EA0646360C4FF000034FF000024FF041
:10400000000194E72DE9804C70B49A46934691E8FC
:10401000380007C831EA400C48BF34EA430C03D5E6
:10402000FFF7E6FDFFF780FFF0BCBDE8008C2DE94F
:10403000804C70B49A46934691E8380007C810F057
:10404000804F08BF13F0804F03D100F005F8FFF751
:104050006BFFF0BCBDE8008C20F07F4723F07F4C65
:1040600080EA030000F0004007EB0C03A3F57C534B
:10407000A3F1FE0392F0000F00F0B38095F0000F63
:1040800000F077802DE901494FEA114021EA00480C
:104090004FEA144624EA064700FB06FC08FB06F636
:1040A00007FB08F818EB06484CEB164C00FB07F72B
:1040B00018EB07484CEB17404FEA124B22EA0B4E25
:1040C0004FEA154625EA06470BFB06FC0EFB06F6F3
:1040D00007FB0EFE1EEB064E4CEB164C0BFB07F7D8
:1040E0001EEB074E4CEB174B18EB0B0840F1000092
:1040F00018EB0E0B58EB000840F100008F1A4FF040
:1041000000014FF000063CBFC943661B14BFB5EB6E
:10411000040C00213CBFC943F61B4FEA174427EAB1
:1041200004454FEA1C472CEA074C04FB076205FBD9
:1041300007F70CFB05F616EB074642EB174204FBAC
:104140000CFC16EB0C4642EB1C421BEB060658EB34
:10415000020241414EEA8E0E46EA9E0601D5BDE8B6
:104160000189B619524141EB0101A3F10103BDE8F8
:1041700001894FEA144524EA05464FEA114721EA2E
:10418000074C05FB07F406FB07F70CFB06F111EBE8
:10419000074144EB174405FB0CFC11EB0C4144EBCD
:1041A0001C444FEA124722EA074C05FB07F206FBC4
:1041B00007F70CFB06F616EB074642EB174205FB2A
:1041C0000CFC16EB0C4642EB1C456A1854F100013E
:1041D00048BF7047B619524141EB0101A3F10103F9
:1041E000704795F0000F37D04FEA114221EA02469E
:1041F0004FEA144724EA074C02FB07F106FB07F7D6
:104200000CFB06F414EB074441EB174102FB0CFCDA
:1042100014EB0C4441EB1C414FEA154725EA074CCF
:1042200002FB07F506FB07F70CFB06F616EB074645
:1042300045EB174502FB0CFC16EB0C4645EB1C420C
:10424000121951F1000148BF7047B619524141EBB4
:104250000101A3F1010370474FEA144524EA054622
:104260004FEA114721EA074C05FB07F106FB07F768
:104270000CFB06F212EB074241EB174105FB0CFC6D
:1042800012EB0C4251EB1C414FF0000648BF704747
:10429000921841EB0101A3F101037047490050EA74
:1042A000C12018BF04204A0D18BF40F0010040F2A1
:1042B000FF72B2EB515F08BF40F00200012808BF57
:1042C0000520704730380A2801D2012070470020AD
:1042D0007047000010B500290AD00878002807D0E0
:1042E00005487844FDF756F8002801D0002010BD9D
:1042F0000248784410BD0000DA010000D20100003D
:1043000010B500290AD00878002807D0054878445D
:10431000FDF740F8002801D0002010BD0248784485
:1043200010BD0000CA010000C2010000B0FA80F315
:1043300010FA03F10AD0C3F11D0303F580634FEABD
:1043400003524FEA415002EBD12170474FF0000079
:104350007047FCF74FBAFCF761BD0400000800008D
:10436000000000000002000100001000000000003A
:1043700000000000303132333435363738394142AD
:1043800043444546403058003031323334353637B7
:1043900038396162636465664030780030313233A9
:1043A0003435363738396162636465667870003059
:1043B0003132333435363738394142434445465833
:1043C0005000000002400000000000A000000000BB
:1043D00005400000000000C8000000000C40000084
:1043E0000000409C00000000194000000020BCBEFE
:1043F0000000000034400000BFC91B8E0000000414
:10440000B5400000504BCFD06607E2CF010000005E
:104410006C4100003E8251AADFEEA734010000008B
:10442000D9420000DCB5A0E23A301F97FFFFFFFF42
:10443000B4450000FD25A0C8E9A3C14FFFFFFFFF61
:10444000FF3F00000000008000000000FF3F000070
:1044500000000080000000000000000000000000DC
:10446000010203040607080900000000010203041A
:10447000010202030405060708090A0B0C0D0E0FC2
:1044800010100A0054454D503D252E3166006875C8
:104490006D69643D252E316600000000E845000886
:1044A000000000201000000028010008F845000866
:1044B00010000020A0070000440100081C000000BC
:1044C00043000000F8FFFFFF0C0000000E0000009A
:1044D0000F0000002E00000010010000430000004B
:1044E000F8FFFFFF00404040404040404040414115
:1044F00041414140404040404040404040404040B9
:104500004040404040050202020202020202020252
:10451000020202020220202020202020202020024F
:1045200002020202020290909090909010101010DF
:10453000101010101010101010101010101010107B
:10454000020202020202888888888888080808080F
:1045500008080808080808080808080808080808DB
:104560000202020240000000000000000000000003
:10457000000000000000000000000000000000003B
:10458000000000000000000000000000000000002B
:10459000000000000000000000000000000000001B
:1045A000000000000000000000000000000000000B
:1045B00000000000000000000000000000000000FB
:1045C00000000000000000000000000000000000EB
:1045D00000000000000000000000000000000000DB
:1045E00000000000000000000100000010000000BA
:0845F0000024F400F4010000B6
:04000005080000ED02
:00000001FF
