:020000040800F2
:100000002008002035020008F53A0008ED3A000803
:10001000F13A0008F9140008D93B0008000000007C
:10002000000000000000000000000000FD3A000891
:100030003517000800000000F93A0008013B0008ED
:100040004F0200084F0200084F0200084F0200084C
:100050004F0200084F0200084F0200084F0200083C
:100060004F0200084F0200084F0200084F0200082C
:100070004F0200084F0200084F0200084F0200081C
:100080004F0200084F0200084F0200084F0200080C
:100090004F0200084F0200084F0200084F020008FC
:1000A0004F0200084F0200084F0200084F020008EC
:1000B0004F0200084F0200084F0200084F020008DC
:1000C0004F0200084F0200084F0200084F020008CC
:1000D0004F020008CD3B00084F0200084F02000805
:1000E0004F0200084F0200084F02000800F002F81B
:1000F00000F090F80AA090E8000C82448344AAF132
:100100000107DA4501D100F085F8AFF2090EBAE82F
:100110000F0013F0010F18BFFB1A43F0010318473B
:100120002454000044540000103A24BF78C878C119
:10013000FAD8520724BF30C830C144BF04680C60ED
:10014000704700000023002400250026103A28BF35
:1001500078C1FBD8520728BF30C148BF0B60704739
:100160006E2900F03F82702900F08F85662905F026
:100170004481652905F04181672905F03E816129A7
:1001800005F03D8103681B0A28BF41F08001692901
:1001900000F0EC81642900F0E981752900F0E68126
:1001A0006F2900F01D85782900F05B85E92900F0B2
:1001B000B784E42900F0B484F52900F0B184EF2974
:1001C00000F01A85F82900F05A850368DB0928BF7A
:1001D00041F08001632900F0CD87732900F0D287B8
:1001E000E32900F0DD87F32900F0E2870020704763
:1001F0001FB500F055FD04000020002104F04EFC66
:10020000401C60600020002104F032FCE0601FBD53
:1002100010B510BD01F06AF81146FFF7E9FF03F0D1
:10022000FFFD01F091F803B4FFF7F2FF03BC01F00A
:10023000D5F800000948804709480047FEE7FEE777
:10024000FEE7FEE7FEE7FEE7FEE7FEE7FEE7FEE786
:1002500004480549054A064B70470000053B000865
:10026000ED000008200200202008002020040020CB
:10027000200400201CB50C46064B7B4469460090C8
:10028000204600F0D6FB04460020694600F0E4FB5F
:1002900020461CBDDB0700000FB41CB5084B06AAA6
:1002A0007B4469460090059800F0C3FB044600209B
:1002B000694600F0D1FB20461CBC5DF814FB000031
:1002C000B50700002DE9F05F894604464FF0000AAB
:1002D000DFF874B1FB44C0F820A02046E1688847ED
:1002E000002874D0252806D0D4E901219047206A3F
:1002F000401C2062F1E700265F462046E1688847FF
:100300002028054607DB312D05D2781910F8200C7E
:1003100008B10643F1E7B00701D526F00406C4F89A
:100320001CA00027C4F818A02A2D09D0284604F0E4
:1003300097FB38B304EB8708303DC8F8185019E034
:1003400059F8041B204604EB87029161E168884755
:10035000012F054618D1E069002820DA26F0200692
:100360001DE0D8F8180000EB800005EB40003038A5
:10037000C8F818002046E1688847054604F070FB7D
:100380000028EED1012F0AD02E2D08D12046E16899
:1003900088477F1C0546022F46F02006C4DBA06973
:1003A000002803DA404246F00106A061F00701D0C0
:1003B00026F010066C2D0BD0682D09D04C2D39D0AD
:1003C0006A2D35D0742D35D07A2D33D016E038E033
:1003D000E1682F4620468847B842054609D16C2F70
:1003E00026D04FF48060E1680643204688470546E2
:1003F00004E06C2F1AD04FF4807006430DB3A5F1C2
:100400004100192802D8203546F400664A4629469C
:10041000204626604E46FFF7A3FE80B101280BD090
:10042000F61D26F0070000F1080956E74020E4E732
:100430008020D8E70020D6E706F104094DE72846DA
:1004400052E7206ABDE8F09F2A51000010B5431C16
:1004500002E010F8011B71B18107FAD14FF00132AF
:1004600002C88C1A8C4314EAC211F9D0C01A0A06C9
:1004700003D0C01E10BDC01A10BD0A0401D0801EDA
:1004800010BD0902FCD0401E10BD421E12F8013FF3
:10049000002BFBD111F8013B002B02F8013BF9D1F5
:1004A000704770477047704770B5044685690068AB
:1004B000C10601D5302600E02026C00707D070BD58
:1004C000D4E9012130469047206A401C20626D1E0D
:1004D000F6D570BD70B5044685690078C00707D1B0
:1004E00070BDD4E9012120209047206A401C206281
:1004F0006D1EF6D570BD09684A0501D540B270473A
:10050000C905FCD500B2704709684A0501D5C0B2DB
:100510007047C905FCD580B2704770B50C460546DA
:10052000012A05D02878800600D5EA69002302E078
:10053000012305E05B1C934202D2E05C0028F9D164
:10054000A869E618C01AA861286A184428622846D3
:10055000FFF7AAFF04E0D5E9012114F8010B904749
:10056000B442F8D32846FFF7B5FF70BD2DE9F0413E
:100570000646002410687529314616A510D0FFF7ED
:10058000BAFF002802DA404213A507E031688A0763
:1005900001D512A502E0490704D511A5012401E007
:1005A000FFF7B2FF00210A2206F1240709E0B0FBA1
:1005B000F2FCB0FBF2F302FB1C003030785418461A
:1005C000491C0028F3D123462A463046BDE8F041B5
:1005D00000F0AFBB000000002D0000002B00000069
:1005E0002000000011680268006A530501D50870F8
:1005F0000AE0D30501D5088006E0130603D5C2172B
:10060000C1E9000200E00860012070472DE9FF4FBA
:100610000C461E464FF0FF378BB0D2E90001DDF8E3
:1006200060800A908A46C1F30A5505B93D4600210B
:1006300008464FF00000BAF1000F00F4400005DA60
:1006400000EB80004FF4400101EA50004FEA90595E
:10065000B9F1010F00DDB9460A9850EA4A000ED000
:1006600044F61050A5F2FF3545432F14B8F1000FA2
:100670001ED07542291E1EDDC9F100021CE0B8F132
:10068000010F4FF0000001D0302103E0F24305E0FC
:100690002154401CB042FBDB304600220021215493
:1006A0000B99C1F80880C1E900200FB0BDE8F08FB8
:1006B000BD1B6D1CDEE74A4600DA694206A800F061
:1006C0007BFD06AB93E8070003AB83E807005046C9
:1006D0000A9903F0E8FD8DE80700A0F500501F38E7
:1006E00000900398002D0ADD42F21F014A4608449B
:1006F000002303A90390684604F052F809E0A0F52E
:1007000000504A461F38002303A90390684604F0AE
:100710005CF88DE807000004000C03D04FF0FF30B8
:10072000410800E01046B8F1000F03D0002200920B
:1007300015461EE0751E05D400F0B6FA303262553B
:100740006D1EF9D5B3460122084302D000227F1C5A
:1007500004E02078302801D100227F1E002A09976A
:1007600084D01DE0112D07DA00F09EFA3032625578
:100770006D1C50EA0102F5D1084302D00098C8B1BF
:100780000EE00021681E05E0235C625C6354225485
:10079000401E491C8142F7DBAB46A81B401E099056
:1007A000002004F80B000B98099AC0F80880C0E9F3
:1007B000002B7AE711264FF0000857E72DE9F04F9C
:1007C00088460446D21D22F0070191B0D1E900010C
:1007D000CDE90A0104F030F902460B98C00F01D0B0
:1007E0002D2007E02068810701D52B2002E0202181
:1007F00001EAC000032A099001D0072A05DB03465D
:100800004146204600F06CFC0BE12078800601D5C3
:10081000E06900E00620B8F1650F814606D0B8F126
:10082000660F18D0B8F1670F70D131E00020B9F130
:10083000110F009001DB112301E009F101030AAA65
:1008400001A90CA8FFF7E2FEDDE90C70002609F112
:100850000105834647E001204B4600904FF00047DA
:100860000AAA01A90CA8FFF7D1FEDDE90DB00C9989
:100870005D46002610B909F101000D18B9EB05001D
:1008800003D4C0F1FF3609F10105A5EB09002BE007
:10089000B9F1010F01DA4FF001090020B9F1110F90
:1008A0000090484601DD112300E003460AAA01A991
:1008B0000CA8FFF7ABFEDDE90C704D460026834621
:1008C000207800070AD4AB4500DA5D4601A8012D67
:1008D00004DD411911F8011C302907D04F4502DA17
:1008E00017F1040F04DA012082460FE06D1EEEE7D7
:1008F000002F02DCED1B3E4403E0781CA84200DD23
:100900007D1CB81B00F1010A4FF00047207800075A
:1009100003D4AA4501DB4FF0FF3A0021B7F1004FA5
:100920000DF143088DF8431024D002202B23002F13
:1009300001DA7F422D230A21021EA0F1010000DC12
:100940005FB197FBF1FC97FBF1F201FB1C7C1746B2
:100950000CF1300C08F801CDEEE7A8F101000370AE
:100960002188090501D5452100E06521A0F1010894
:1009700000F8011C09980FA9A1EB0807FF1D00B1A1
:100980000120411901EBEA70A1693844081A401EA0
:10099000A0612078C00602D42046FFF785FD0998A3
:1009A00028B1D4E901219047206A401C20622078B8
:1009B000C00622D52046FFF777FD1EE0002E04DB9F
:1009C000B34502DD01A8805D00E03020D4E90121BB
:1009D0009047206A401C2062761CAAF101005FEA61
:1009E000000A0AD100F05CF9C0680168405CD4E9F3
:1009F00001219047206A401C2062281EA5F10105B4
:100A0000DCDC07E0D4E9012118F8010B9047206AEB
:100A1000401C2062381EA7F10107F3DC2046FFF7D7
:100A200059FD032011B041E601694A1C02610878B2
:100A3000704700B58FB0CDE901310021059105491E
:100A40007944CDE9031011466846FFF73BFC0FB02F
:100A500000BD0000E5FFFFFF0A6802F8010B0A6015
:100A6000704700002DE9FF5F15468A460446DFF80F
:100A7000AC80F8440027D8E900103E46CDE90010CC
:100A800010E03AF816106A4602A800F007FC411C74
:100A900007D02178890603D5E269391891420DD82B
:100AA0000744761C2078800602D5E069B84205DD4F
:100AB000AE42E6DB3AF816000028E2D1A069C01B7E
:100AC000A0612046FFF7F0FCD8E90010CDE9001046
:100AD000002017E03AF818106A4602A800F0DEFB82
:100AE000B0F1FF3F81460BD000250DF1080B05E06A
:100AF000D4E901211BF8050090476D1C4D45F7D343
:100B000008F10100B0428046E4DB206A38442062EC
:100B10002046FFF7DFFCBDE8FF9F00009E49000074
:100B20002DE9F0418046D21D22F007020025D2E9CE
:100B30000002F52915A614D0011E72F1000106DA93
:100B40000023D0EB030063EB020211A608E0D8F803
:100B500000108B0701D50FA602E0490701D50EA6AC
:100B600001251146002408F1240704E000F09CF858
:100B700030323A55641C50EA0102F7D12B46324616
:100B800021464046BDE8F04100F0D3B80000000027
:100B90002D0000002B0000002000000030B40021D8
:100BA00000F1240408E002F00705D208303542EADB
:100BB0004372DB086554491C52EA0305F3D104680B
:100BC000002310A2250708D504F020040C4304D00C
:100BD000C46901230CA2641EC46130BC00F0A9B832
:100BE00010B5044621461068FFF78EFC02462046E9
:100BF000BDE810400023D1E7D21D22F00701D1E962
:100C00000023CBE70000000030000000F0B40D46E8
:100C10000188090502D5214C7C4402E01F4C7C442C
:100C20000E34002100F1240608E002F00F0712093B
:100C3000E75D42EA03721B097754491C52EA030735
:100C4000F3D102780023120704D5702D06D009B124
:100C5000022311342246F0BC00F06BB8012310349B
:100C6000F8E770B504460D4621461068FFF74CFCC6
:100C7000024629462046BDE870400023C6E7D21D43
:100C800022F00703D3E90023C0E70368126843F0AA
:100C9000200303600823C3610023B7E70048000076
:100CA000004870473800002030B5B0F10A0271F1F9
:100CB00000034FEA900E4EEA817EB0EB0E0061EB2E
:100CC00091014FEA101E4EEA017E10EB0E0041EB3F
:100CD00011114FEA102E4EEA016E10EB0E0041EB9F
:100CE00011214FEA104E4EEA014E10EB0E0041EB7F
:100CF0001141401841F100014FEAD00040EA417033
:100D00004FEAD1014FEA810444EA907410EB800568
:100D100044EB01046D1944EB0404521BA3414FF052
:100D2000000348BF0A3200D530BD401C41F100012C
:100D300030BD2DE9F0470D4699469246044600F134
:100D400024080168880604D5E06921F010012160BB
:100D500000E00120A84201DD471B00E00027A16957
:100D60007A1902EB0900081AA0612078C00602D4A3
:100D70002046FFF799FB002608E0D4E901211AF884
:100D800006009047206A401C761C20624E45F4DB2A
:100D90002078C0060AD52046FFF786FB06E0D4E996
:100DA000012130209047206A401C2062381EA7F1A4
:100DB0000107F4DC07E0D4E9012118F805009047A9
:100DC000206A401C2062281EA5F10105F3DC2046A4
:100DD000FFF780FB2078000602D50220BDE8F087EF
:100DE0000120FBE72DE9F04F04460D46D21D22F00D
:100DF000070089B0D0E900974846394603F01CFE49
:100E00000246F80F01D02D2307E02068810701D5A5
:100E10002B2302E0202101EAC0038DF820300BB122
:100E2000012000E00020032A824601D0072A04DBCB
:100E30002946204600F054F93FE12078800601D48D
:100E40000D2500E0E569C7F30A560D2D49DA0021AA
:100E50004FEA175B08464FF00000002F00F44000F7
:100E600007DA00EB80004FF4400100EBD07001EA9C
:100E700060008115012901DD4FF0FF3100224FEAAA
:100E8000850CBCF1180F06D31346ACF118004FF0D7
:100E90008052C24003E04FF4801323FA0CF30CF1AC
:100EA0000C0CBCF1200F04D3ACF1200C09FA0CF0AF
:100EB00001E007FA0CF000294FF0004801DD18B9F5
:100EC0000FE00ED140450CD319EB02095F4121B967
:100ED000404502D19F4329EA0209BBEB175F00D0CE
:100EE000761C2088000502D57B48784402E07A48C9
:100EF0007844193808AA302302F80A30037C0AF132
:100F00000101002E0AF1020A53546A4602DC4FF036
:100F1000300101E04FF031014FF001088DF8001071
:100F200002D0A6F2FF3603E059EA470100D06B4E2B
:100F3000002D02DC2178090704D54FF002082E218C
:100F40008DF80110C44600210BE0C7F303433F01B5
:100F5000C35C491C6D1E02F80830052908F1010820
:100F600001DA002DF1DC00210CE000EB1973491CC3
:100F70001B786D1E082902F808304FEA091908F19C
:100F8000010801DA002DF0DC21688B0602D516E09D
:100F9000A8F10108E04505DD02EB080313F8013C68
:100FA000302BF5D0B8F1000F09DD02EB080313F880
:100FB000013C2E2B03D1090701D4A8F10108002D13
:100FC00005DD3E2102F808106D1E08F10108407C85
:100FD000002E02F8080008F1010804DA2D207642FC
:100FE00002F8080002E02B2002F808000A214FF462
:100FF0007A70864208F101080BDB96FBF0F3303380
:1010000002F8083096FBF0F308F1010800FB1366C4
:1010100001E0642E0CDB642096FBF0F3303302F821
:10102000083096FBF0F308F1010800FB136601E0BD
:101030000A2E06DB96FBF1F0303002F8080008F1CA
:10104000010896FBF1F001FB1060303002F8080057
:10105000A16908F1010808EB050202EB0A00081A71
:10106000A0612078C00602D42046FFF71DFA216A4D
:1010700008AE01EB0A00206204E0D4E9012116F871
:10108000010B9047BAF1010AF7D22078C00602D5C9
:101090002046FFF709FA6E4609E016F8010B3E28D4
:1010A0000FD0D4E901219047206A401C2062B8F19A
:1010B0000108F2D22046FFF70DFA09B00320BDE87F
:1010C000F08F206A2844206203E0D4E90121302017
:1010D00090476D1EEBD3F8E76945000002FCFFFF67
:1010E0002DE9F0411F46044603260168072A01F452
:1010F000006004DB08B116A505E016A503E008B101
:1011000015A500E015A521F010002060A069C01E03
:10111000A0610FB1401EA0612046FFF7C5F94FB195
:10112000D4E9012138469047206A401C2062C01C47
:10113000206206E0206AFAE7D4E9012115F8010BE4
:101140009047761EF8D22046FFF7C4F9BDE8F0813B
:101150004E414E006E616E00494E4600696E66005B
:1011600010B5436913B1AFF3008001E0FFF7D5F983
:10117000012010BD127800F124010A7000224A708B
:101180000122EDE711684FF0FF32E9E710B543693E
:1011900013B1AFF3008001E0FFF764FC012010BD44
:1011A000128800F1240182840022C2840122EDE72A
:1011B00011684FF0FF32E9E72DE9F0478146164606
:1011C0008AB0354878440DC88DE80D00324878441F
:1011D000801C03AC0DC884E80D0041F69B30084428
:1011E000372190FBF1F290FBF1F5A5F1800501FBB1
:1011F00012041B3C02D56442012000E00020DFF80D
:1012000098A080460027FA44AAF1BE0A0EE0E00743
:101210000AD03246684607EB470101230AEB8101F9
:1012200003F0D3FA8DE8070064107F1C002CEED188
:10123000194F7F44AE3F19E0E80715D007EB0410C3
:101240000DF1180A90E80E008AE80E00C068F0421E
:1012500001D1981908903246012306A903A803F08A
:10126000B4FA03AB83E807006D10641C002DE3D1D2
:101270004FF0010332466946B8F1000F03A802D0CF
:1012800003F08EFA01E003F0A0FAC9E90001C9F801
:1012900008200AB0BDE8F087204300002DE9F041A6
:1012A00016460C46054600F047F8036893F801011E
:1012B000012807D0FF2C12D8185D80B101202C70B6
:1012C000BDE8F081D3F807013246214603F2071347
:1012D000C7182846BC46BDE8F041002360474FF0E0
:1012E000FF30EDE700487047180000207546FFF713
:1012F000F9FFAE4605006946534620F007008546D3
:1013000018B020B5FEF7A4FFBDE820404FF000065E
:101310004FF000074FF000084FF0000BAC46ACE870
:10132000C009ACE8C009ACE8C009ACE8C00921F0CC
:1013300007018D467047000010B5FFF7B1FC001D96
:1013400010BD00BF5937000010B50446AFF3008050
:101350002046BDE81040FEF766BF00004FF0013C9C
:1013600050F8042B51F8043B9A4221D1A2EB0C0314
:10137000934313EACC1317D150F8042B51F8043BD4
:101380009A4215D1A2EB0C03934313EACC130BD171
:1013900050F8042B51F8043B9A4209D1A2EB0C03FC
:1013A000934313EACC13DBD04FF00000704700BF2B
:1013B000D01A01BAB1FA81F101F0180122FA01F054
:1013C000CB40DBB2C0B2C01AC1F120012CFA01F34C
:1013D000D11A914311EAC311E6D17047014918208F
:1013E000ABBEFEE72600020070470000B0B5044621
:1013F00000688168C90709D0816821F00101816016
:1014000000F072FD21688968C90701D10020B0BDD4
:10141000054602E08068C007F8D000F065FD411B7A
:1014200020680329F6D38168C907F3D0A06A40F089
:101430001000A062E06A40F00100E0620120B0BD4F
:10144000B0B582B004460020019021688A68D207B6
:101450004FD1886840F00100886040F21400C2F269
:10146000000000684DF68361C4F21B31A0FB01014E
:10147000880C01900198A0B1019801380190019861
:1014800078B1019801380190019850B10198013864
:101490000190019828B10198013801900198002825
:1014A000EAD100F021FD21688968C9071CD10546F1
:1014B00003E000BF8068C0071AD100F015FD411B92
:1014C00020680329F6D38168C907F3D1A06A40F0E8
:1014D0001000A062E06A40F00100E062002084F8A1
:1014E0002400012002B0B0BD002002B0B0BD00BF9A
:1014F000002002B0B0BD0000FEE700002DE9F04F73
:1015000081B040F2800714460D468346C2F20007C0
:101510004FF6FF79002603E00136082EC2464FD071
:1015200000F0E2FC386000BF00F0DEFC7860284686
:10153000214600F0CDFC20B9D7E9000102308842F5
:10154000F2D8DBF8000000214162C0F82C90584628
:10155000CBF80C9001F088FEDBF80000416A2729E7
:1015600008D8416A272905D8416A272902D8416A43
:101570002829F3D3584601F0ABFE2846214600F057
:10158000A7FCC6F10701012202FA01F14AEA0108AB
:10159000002808BF2AEA010800F0A6FC386000BF56
:1015A00000F0A2FC78602846214600F091FC00285B
:1015B000B2D0D7E9000102308842F1D8ACE700BFD1
:1015C0005FFA88F001B0BDE8F08F0000F0B585B09B
:1015D000064601200D46029002200490002701A932
:1015E000284614460192039700F064FB28462146E2
:1015F000002200F073FC30684FF6FF714762C16251
:101600003046F16001F030FE306844F61F6144F668
:10161000206200BF436A8B4208D8436A8B4205D8D8
:10162000436A8B4202D8436A9342F3D3304601F0B7
:101630004FFE28462146012200F050FC3068002170
:1016400041624FF6FF71C1623046F16001F00CFE5D
:10165000306800BF416A1D2908D8416A1D2905D894
:10166000416A1D2902D8416A1E29F3D3304601F090
:101670002FFE01200027039001A92846029700F0C1
:1016800019FB30684FF6FF714762C1623046F16066
:1016900001F0EAFD306800BF416A272908D8416A95
:1016A000272905D8416A272902D8416A2829F3D376
:1016B000304601F00DFE2846214600F009FC4FF0AF
:1016C000000700BB30684FF6FF714762C1623046C9
:1016D000F16001F0C9FD3068416A4F2908D8416ABC
:1016E0004F2905D8416A4F2902D8416A5029F3D3BE
:1016F000304601F0EDFD2846214600F0E9FB0746A3
:10170000002818BF012700F0EFFB40F28006C2F26C
:101710000006306000F0E8FB70602846214600F0CB
:10172000D7FB20B1D6E9000102308842F2D8384612
:1017300005B0F0BD7047000070B582B004460020CF
:10174000019094F82400012804D10225284602B013
:1017500070BD00BF012084F824002046FFF746FE3C
:10176000054600286CD1A06A41F20211884302307C
:10177000A06240F21400C2F200000668022001F0EC
:10178000AFF8B6FBF0F0400001900198A8B100BF9F
:10179000019801380190019878B1019801380190C1
:1017A000019850B1019801380190019828B1019831
:1017B0000138019001980028EAD12046FFF740FE49
:1017C0002068816841F00801816000F08DFB21688C
:1017D0008A6812070ED4886840F00400886000F020
:1017E00083FB21688968490714D401206FF0030145
:1017F00022E000BF064602E088680007EBD500F053
:1018000073FB801B21680B28F6D388680007F3D58B
:101810000EE000BF064602E080684007E5D500F014
:1018200063FB811B20680B29F6D381684907F3D538
:10183000012510206FF01201A26A11400843A06236
:10184000002084F82400284602B070BD10B581B095
:101850000022009290F82420012A03D10221084698
:1018600001B010BD4B680122062B80F8242017D848
:10187000D0F800C003EB83035A1F1F23DCF834E0C9
:1018800003FA02F40B682EEA040403FA02F222437C
:10189000CCF83420092B03EB430219D936E000BF02
:1018A000D0F800C00C2B03EB83021DD8233A1F2372
:1018B000DCF830E003FA02F40B682EEA040403FAC1
:1018C00002F22243CCF83020092B03EB43021DD84F
:1018D000DCF81030072489689440A34391401943F1
:1018E000CCF81010002130E0413A1F23DCF82CE046
:1018F00003FA02F40B682EEA040403FA02F222430C
:10190000CCF82C20092B03EB4302E1D9DCF80CE0E6
:101910001E3A0724896894402EEA0404914023F07B
:1019200001022143102ACCF80C100DD142F20841DB
:10193000C4F20101A1F1080294450DD0816A41F081
:1019400020018162012100E00021002280F8242092
:10195000084601B010BD00BF0A68120230D40A6800
:10196000102B42F400020A602CD140F21401C2F2A2
:10197000000109684DF68362C4F21B32A1FB02121A
:10198000910C01EB8101490000910099E1B10099AE
:10199000013900910099C9B100990139009100996C
:1019A000B1B1009901390091009999B100990139BB
:1019B0000091009900294FF00001E8D1C5E700BF70
:1019C0000021C2E70021C0E70021BEE70021BCE7FB
:1019D0000021BAE70021B8E7B0B5002800F0A880E0
:1019E0000446806A20B121688868C0070BD114E0E2
:1019F0000020E06284F82400204600F09BF8216873
:101A00008868C00709D0886820F00100886000F06D
:101A10006BFA21688A68D20726D1A06AC0063AD438
:101A2000A06A41F2021290430230A062E069D4E958
:101A3000013240EA030C531EB3FA83F35D091346E7
:101A4000B2F5807F18BF2B02207D257B01284CEA50
:101A5000450030D135B3A56A45F02005A562E56A99
:101A600045F00105E56226E0054602E08868C0070A
:101A7000D3D000F039FA401B21680328F6D38868D8
:101A8000C007F3D0A06A40F01000A062E06A40F006
:101A90000100E062A06AA06A40F01000A06201208C
:101AA000B0BD00BFD4F818C04EF60005CFF6FF75E4
:101AB00005EB4C352B434D68B2F5807F25F4694525
:101AC00043EA05034B608B684FF2FD75CFF6E17575
:101AD00003EA050343EA00038B6001D0012A07D122
:101AE00022690023CFF6F07303EB025201E000BF3E
:101AF0000022CB6A23F470031A43CA62896840F655
:101B0000FE62CFF61F721140814207D10020E062D1
:101B1000A16A012262F30101A162B0BDA06A40F096
:101B2000100020F00200A062E06A40F00100E062D4
:101B30000120B0BD80B586B0014640F60000C4F279
:101B40000100096800F5E05291424FF00001CDE933
:101B5000041101D006B080BD41F21801C4F20201A7
:101B60000A6842F400720A600A6802F40072019284
:101B7000019A0A6842F004020A60096801F004014F
:101B800001910199012102910321039102A900F021
:101B900091F806B080BD0000014690F821000228AF
:101BA00016D10868D1E90FC3026822F00E02026064
:101BB000026822F001020260012000FA03F2CCF870
:101BC000042081F821000020002281F820207047A5
:101BD000042088630120002281F820207047000043
:101BE00080B590F82110022924D10268116821F0F3
:101BF0000E0111602F211368C4F202018A4240F2E3
:101C00000401C4F2020123F00103136016DD302346
:101C1000C4F202039A421DD04423C4F202039A4242
:101C20001CD05823C4F202039A421DD14FF48033D2
:101C300022E000BF04218163012080BD0823C4F29B
:101C400002039A420ED01C23C4F202039A420BD123
:101C5000102311E04FF480730EE000BF4FF4805367
:101C60000AE000BF012307E001F1680C4FF0807328
:101C7000624508BF4FF480130B60416B4FF48072D4
:101C8000028401B18847002080BD0000B0B5044641
:101C900000F02AF9054640F20C00C2F2000000787C
:101CA000611C18BF044400BF00F01EF9401BA04295
:101CB000FAD3B0BD2DE9F04F82B00E68002E00F0CF
:101CC000038140F20C4C41F200424FF6FF7EC4F219
:101CD000010CC4F20102042700240123C1F2100EFA
:101CE0004FF0000A4FF00009904208BF0327009709
:101CF00045E000BF012704F00C030F229A402BEAB5
:101D0000020207FA03F34FEA9A051A4346F8252020
:101D1000D1F804B040F20045C4F201055FEACB32CD
:101D20002A6854BF22EA080242EA08022A606A6866
:101D30005FEA8B3354BF22EA080242EA08026A6073
:101D40005FEACB23AA6854BF22EA080242EA0802EB
:101D50005FEA8B23AA60DCF800204FF0010354BF38
:101D600022EA080242EA0802CCF800200E680AF1D2
:101D7000010A36FA0AF204F1040400F0A58003FA1D
:101D80000AF816EA080FF1D04E68764512DC122EDA
:101D900056D8DFE806F0350B45495555555555558C
:101DA000555555555555554D510000BFD1F80C901E
:101DB00046E000BF4FF6FF72C1F2210296420FDCEF
:101DC0000022C1F2110296421AD00022C1F2120280
:101DD000964215D00022C1F22102964210D02FE087
:101DE0000022C1F2220296420AD00022C1F2310240
:101DF000964205D00022C1F23202964220D100BFA5
:101E00008A684AB1012A14BFC0F81480C0F8108053
:101E10004FF0080914E000BF4FF0040910E000BFC4
:101E2000CA6802F108090BE04FF0000908E000BFA2
:101E3000CA6802F1040903E0CA6802F10C0900BF94
:101E400022460646BAF1080F24BF203A0436376806
:101E50000F25954027EA050509FA02F22A43326068
:101E6000CA79D2067FF582AF41F21803C4F20203A9
:101E70001A6842F001021A601A6802F00102019227
:101E8000019A40F20042C4F20102A2F57E762AF0E5
:101E9000030256F802B040F60002C4F2010290427A
:101EA00010D040F60042C4F2010290423FF422AF4B
:101EB00041F20002C4F20102009F904208BF0227D3
:101EC00019E700BF002716E702B0BDE8F08F000059
:101ED0008068084018BF012070470000002A08BF32
:101EE000090401617047000040F21820C2F20000AE
:101EF0000068704770B5B8B3044690F83D0028B943
:101F0000002084F83C00204600F000FC242084F8E7
:101F10003D002068016821F001010160016841F481
:101F200000410160016821F40041016000F0B6FE4B
:101F300048F28041C0F21E0140F60013D4F804E0DC
:101F400088424FF00001C0F23D0348F2A16C4FF00F
:101F5000000238BF01219842C0F2010C38BF0122B3
:101F6000E64538BF0A460AB1012070BD4DF68361CF
:101F7000C4F21B31A0FB01122168950C4B684FF491
:101F8000967623F03F0343EA9243754344F6D356D3
:101F90004B60C1F262060B6AA5FB0656B50923F039
:101FA0003F03E64538BF950C6A1C1A430A62CA69AA
:101FB00048F2A0664CF6FF73C0F20106B64522EA6D
:101FC00003020BD801384FEA4E03B0FBF3F00130A7
:101FD0006FF31F30042898BF04201EE0A368013867
:101FE00063B119230EFB03F3B0FBF3F001306FF381
:101FF0001F3078B100F5804008E000BF0EEB4E03C3
:10200000B0FBF3F001306FF31F3028B100F5004052
:1020100003E000BF012000E001201043C861086810
:10202000D4E9072320F0C0001043184308608868F3
:1020300048F2FF3204F10C0690434CCE1843104393
:10204000A5698860C86820F0FF0030432843C86055
:10205000086840F00100086000202021206484F816
:102060003D10206384F83E0070BD00002DE9F04F64
:1020700081B01D4690460E460446FFF735FF94F8A2
:102080003D10202918D107462168886980070FD59F
:10209000FFF72AFFC01B1928F6D900202021206352
:1020A00084F83D1084F83E00216C0225C1E000BF99
:1020B00094F83C00012805D10225284601B0BDE86E
:1020C000F08F00BF012084F83C000868C00703D1EE
:1020D000086840F001000860086806F0FE0920F476
:1020E00000600860242084F83D0000202064002067
:1020F000CFF6FF70012605F1010A4FF0A00BE06258
:10210000B8F1020F98BF4FF00208086840F48070E1
:1021100008604869C0070FD1BAF1000F56D0002DF2
:1021200000F09C80FFF7E0FEC01BA84200F2988000
:1021300021684869C007F5D0C1F81090FFF7D4FEB8
:1021400021684B694A6994F83D70A02F07461ED05C
:1021500013F0020008BF12F4806018D1FFF7C4FE2C
:1021600035B1C01BA84288BF84F83DB002E000BF73
:1021700084F83DB021684A69486994F83D30A02B45
:1021800005D012F0020208BF10F48060E6D02020D3
:1021900084F83D0048690A68800742F400720A60CA
:1021A00022D46FF4806048618869800709D500BF38
:1021B000FFF79AFEC01B192832D82168886980076A
:1021C000F6D401364645A0D13CE000BF4869C007BF
:1021D000B2D14869C00704BF48695FEAC070ABD19B
:1021E0004869C007F2D0A7E700250095486900902C
:1021F0008869009000988869800708D5FFF774FE09
:10220000C01B19280CD8206880698007F6D42020CC
:1022100084F83D0084F83C50284601B0BDE8F08FBA
:1022200000202021206384F83D1084F83E00216CBA
:10223000012541F02001216484F83C00284601B0CA
:10224000BDE8F08F202084F83D000020012584F8AF
:102250003C00284601B0BDE8F08F00BFFFF744FE08
:1022600000202021206384F83D1084F83E00216C7A
:10227000032541F020012164216884F83C000868AE
:10228000C00544BF4FF400702064284601B0BDE88B
:10229000F08F00002DE9F04381B01F4616468846B6
:1022A0000446FFF721FE94F83D10202920D1054671
:1022B00020688169890717D5FFF716FE401B19288A
:1022C000F6D900202021206384F83D1084F83E00D8
:1022D000216C022641F02001216484F83C00304644
:1022E00001B0BDE8F08300BF94F83C10012905D18E
:1022F0000226304601B0BDE8F08300BF012184F81A
:102300003C100168C90703D1016841F00101016077
:10231000016821F400610160212184F83D10102141
:1023200084F83E100021216466626785618D2185F5
:102330000021CFF6FF71E162E16A11F5803F18BF1D
:10234000012919D1016841F4807101604169DDF80A
:102350002090C90723D119F1010116D0B9F1000F5E
:1023600046D000BFFFF7C0FD401B484542D820685B
:102370004169C907F6D012E00829E3D0216B122980
:10238000E0D0E3E74169C90709D14169C90706D12E
:102390004169C90704BF41695FEAC171F2D021698F
:1023A000B1F5804F02D1FE2161E000BF062101EAB4
:1023B000D811F03101614169090757D4416919F118
:1023C000010201F480612FD0002946D1B9F1000F3C
:1023D00000F04281FFF788FD401B484500F23E8136
:1023E00020684169090741D441694905F2D534E0C3
:1023F000FFF77AFD00202021206384F83D1084F847
:102400003E00216C012641F020012164216884F8FE
:102410003C000868C00544BF4FF40070206430469B
:1024200001B0BDE8F08300BFB9B9416909071DD407
:102430004169490511D44169090717D44169490522
:102440000BD44169090711D44169490505D4416993
:1024500009070BD441694905E7D5016841F40071CA
:1024600001606FF4806141610420F8E0FF2101EA1E
:1024700008010161416989073AD4416919F10102F2
:1024800001F4806112D051BBB9F1000F00F0E0807F
:10249000FFF72AFD401B484500F2DC8020684169B7
:1024A000890725D441694905F2D518E0B9B94169D0
:1024B00089071DD44169490511D44169890717D499
:1024C000416949050BD44169890711D4416949051E
:1024D00005D4416989070BD441694905E7D50168ED
:1024E00041F4007101606FF4806141610420B6E045
:1024F0000026009641690091816900910099218D23
:10250000002900F0958009F10108014651F8142FC7
:10251000120635D4B8F1000F16D0B9F1000F00F053
:10252000AF8000BF0868400500F1B280FFF7DCFC17
:10253000401B484500F2A9802068014651F8142F3D
:102540001206EFD51CE000BF0A68520500F1A0801A
:102550000A68120614D40A68520500F199800A68C4
:1025600012060DD40A68520500F192800A6812061C
:1025700006D40A68520500F18B800A681206E3D57A
:10258000636A194611F8012B02616162618D01399C
:102590006185278D0146A7F1010CA4F828C051F8E8
:1025A000142F52070DD55FEA0C420AD05A78A7F1D2
:1025B000020C02619A1C6262628D013A6285A4F883
:1025C00028C00A6852072FD4B8F1000F14D0B9F10F
:1025D000000F7BD00868400500F18080FFF784FC85
:1025E000401B484577D82068014651F8142F520700
:1025F000F0D5B4F828C017E00A6852056ED40A680E
:10260000520711D40A68520568D40A6852070BD4DD
:102610000A68520562D40A68520705D40A6852054E
:102620005CD40A685207E7D55FEA0C417FF46DAFCE
:10263000016841F400710160202084F83D0084F8B5
:102640003E6084F83C60304601B0BDE8F08300BFD6
:10265000FFF74AFC202002E0FFF746FC2020002183
:102660002022216384F83D2084F83E10226C01264C
:102670001043206484F83C10304601B0BDE8F0837C
:102680000868400504D4FFF72FFC202004E000BFB9
:102690006FF480600860042000212022216384F808
:1026A0003D2084F83E10226C1043206484F83C10D6
:1026B000206C042825D120680126016841F40071AE
:1026C0000160304601B0BDE8F08300BF08684005F6
:1026D00004D4FFF709FC202004E000BF6FF4806001
:1026E0000860042000212022216384F83D2084F822
:1026F0003E10226C1043206484F83C10206C0428A7
:10270000D9D00126304601B0BDE8F08310B586B0BF
:1027100045F200410068C4F20001002288420492A0
:1027200002D006B010BD00BF41F21804C4F202048A
:10273000206840F008002060206800F00800019048
:102740000198C0200290122003900320059001F50B
:10275000384002A9FFF7AEFA606840F400106060EC
:10276000606800F400100190019806B010BD0000F0
:1027700040F20C0040F21821C2F20000C2F2000147
:1027800000780A68104408607047000080B542F283
:102790000000C4F20200016841F010010160032052
:1027A00000F08EF80F2000F005F800F027F8002068
:1027B00080BD000070B540F20C06C2F2000640F287
:1027C00014013278C2F200014FF47A730968B3FB46
:1027D000F2F20446B1FBF2F1084600F061FC0F2C66
:1027E0004FF0010508D838B94FF0FF3021460022DC
:1027F000002500F039F87460284670BD82B041F2BF
:102800001800C4F202000168022241F001010160D7
:10281000016801F0010101910199416841F0805185
:102820004160406800F08050009000980420C4F29D
:102830000100016862F31A61016002B07047000094
:10284000002848BF7047C1B200F01F00012202FA01
:1028500000F04EF20012CEF2000242EAD10121F065
:10286000030108607047000010B54EF60C5CCEF214
:10287000000CDCF80030C3F3022E8EF00704042CA9
:1028800028BF0424BEF103034FF0FF3E0EFA04F408
:1028900038BF0023A14399400EFA03F39A43114332
:1028A00000F00F0200F160430901043A03F56443AC
:1028B0006244002848BF02F10C03197010BD0000EB
:1028C0004EF60C51CEF200010A684FF6FF031A4093
:1028D00060F30A2242F0806040F0FD7008607047AB
:1028E00080B5012818D0022836D0102832D141F204
:1028F0000401C4F202010A6851F8040CC00129D590
:10290000C2F383402DA3185CD2033DD440F60012DD
:10291000C0F23D02504343E041F20400C4F2020021
:10292000C16940F202320A40B2F5817F04BF4FF420
:10293000004080BD01F44071B1F5407F1CD0B1F57D
:10294000007F07D1006A49F64041800701EAE07044
:1029500080BD00BF002080BD00F0B4F941F2040149
:10296000C4F2020109680222C1F3813102EB410184
:10297000B0FBF1F080BD00BF50F8040C4FF22441D1
:10298000800301EAE07080BD0A6810A3C2F34042F0
:102990009A5C41F20023C0F27A03B3FBF2F2504397
:1029A0000968490248BF80BD4AF6AB214000CAF61B
:1029B000AA21A0FB0101480880BD00BF0203040555
:1029C000060708090A0B0C0D0E0F1010010200007B
:1029D0002DE9F04182B00446007841F21C06C007A0
:1029E000C4F202064AD0306810F0805808D130682E
:1029F00040F080503060306800F0805001900198C5
:102A000047F20007C4F200073868C00512D43868DE
:102A100040F480703860FFF767FA05463868C005F3
:102A200008D4FFF761FA401B6428F7D9032002B0ED
:102A3000BDE8F081706810F4407012D0616801F454
:102A4000407188420DD0706840F24042C4F2422288
:102A5000012320F4407113600023C00713607160EC
:102A60002AD17068616820F440700843B8F1000F03
:102A7000706003D1306820F080503060206881079A
:102A800007D556F8181CA26821F44041114346F8B6
:102A9000181CC00604D4002002B0BDE8F08100BFBD
:102AA00056F8180CE16820F48000084346F8180C2A
:102AB000002002B0BDE8F081FFF716FA054641F2AA
:102AC000883700BF70688007CBD4FFF70DFA401B32
:102AD000B8424FF00300F5D9EBE700002DE9F043D1
:102AE00081B0002800F0858042F20008C4F202089C
:102AF0000446D8F800000D4600F0070088420CD2CA
:102B0000D8F8000020F007002843C8F80000D8F8E3
:102B1000000000F00700A8426BD1206841F20409D0
:102B20008107C4F2020917D5410705D5D9F800106D
:102B300041F4E061C9F80010010705D5D9F800108B
:102B400041F46051C9F80010D9F80010A26821F0D2
:102B5000F0011143C9F80010C00741D1D8F80000B6
:102B600000F00700A8420CD9D8F8000020F00700B8
:102B70002843C8F80000D8F8000000F00700A84279
:102B800037D12068410707D5D9F80010E26821F451
:102B9000E0611143C9F80010000708D5D9F800001A
:102BA000216920F4605040EAC100C9F80000D9F85A
:102BB000002002F00C00082841F20020C0F27A0048
:102BC00050D145F21A53C2F38341C0F60003595C59
:102BD000D2033BD440F60010C0F23D00484341E030
:102BE000606802280AD001282AD159F8041C8903F8
:102BF00008D4012001B0BDE8F08300BF59F8041CDF
:102C00008901F6D5D9F8001021F003010843C9F86D
:102C10000000FFF769F9064641F28837D9F800004D
:102C2000616800F00C00B0EB810F97D0FFF75CF902
:102C3000801BB842F2D9032001B0BDE8F08300BF89
:102C400059F8041C8907D4D5DCE700BFD9F8002067
:102C500045F20053C2F34042C0F600039A5C484379
:102C6000B0FBF2F0D9F8001045F20252C1F30311A3
:102C7000C0F60002515C40F2140220FA01F140F269
:102C80001000C2F200000068C2F200021160FFF7FB
:102C900091FD002001B0BDE8F083000040F2140077
:102CA00041F20401C2F20000C4F2020100680968A6
:102CB00045F21252C1F30221C0F60002515CC84035
:102CC0007047000040F2140041F20401C2F200001B
:102CD000C4F202010068096845F21252C1F3C22130
:102CE000C0F60002515CC840704700002DE9F04179
:102CF00082B0002868D00446007841F20006C00780
:102D0000C4F2020625D0706800F00C0004281BD025
:102D1000706800F00C00082802D17068C00313D45A
:102D20006068002800F06881B0F5A02F00F07C8179
:102D3000B0F5803F00F07C81306820F48030306056
:102D4000306820F4802076E13068800301D5606827
:102D5000D0B32078800718D5706810F00C0F07D01A
:102D6000706800F00C0008286ED17068C0036BD446
:102D70003068800702D52069012825D13068616953
:102D800020F0F80040EAC1003060207800071FD42E
:102D90002078400732D4E56995B1706800F00C00E6
:102DA000082840F08F80012D0ED07068216A00F451
:102DB00080328A4208D1616A00F47010884203D1DF
:102DC000002002B0BDE8F081012002B0BDE8F08132
:102DD000A069002862D00020C4F242200121C0F87E
:102DE0008014FFF781F80546706A800700F18C8037
:102DF000FFF77AF8401B0228F6D92AE1F06910F0B3
:102E0000805808D1F06940F08050F061F06900F01E
:102E100080500090009847F20007C4F2000738681D
:102E2000C00529D4386840F480703860FFF75CF83A
:102E3000054600BF3868C0051ED4FFF755F8401B93
:102E40006428F7D905E100BF2069002840F200009E
:102E5000C4F2422000F0828001210160FFF744F8B3
:102E6000054600BF306880073FF588AFFFF73CF8A4
:102E7000401B0228F6D9ECE0E068002800F08080D2
:102E8000052800F09780012800F09880306A20F033
:102E900001003062306A20F0040092E00020C4F2A9
:102EA00042200021C0F88014FFF71EF8054600BF3D
:102EB000706A80077FF56CAFFFF716F8401B022899
:102EC000F6D9C6E00027C4F2422700203866FFF793
:102ED0000BF8022D05460BD13068800140F1BE8011
:102EE000FFF702F8401B02284FF00300F4D968E70F
:102EF000306880017FF564AFFEF7F6FF401B0228C3
:102F00004FF00300F4D95CE740F21400C2F2000075
:102F1000006844F6D351C1F26201A0FB0101480AE6
:102F2000019000BF00BF0198411E002801913FF4AD
:102F30002FAF00BF0198411E002801913FF428AF38
:102F400000BF0198411E002801913FF421AF00BF4E
:102F50000198411E00280191E4D119E70021016088
:102F6000FEF7C2FF054600BF306880077FF50DAF52
:102F7000FEF7BAFF401B02284FF00300F4D920E708
:102F8000306A20F001003062306A20F004003062C4
:102F9000FEF7AAFF054641F2883700BF306A800776
:102FA00020D5FEF7A1FF401BB8424FF00300F5D932
:102FB00007E700BF306A40F004003062306A40F03A
:102FC00001003062FEF790FF054641F2883700BFEE
:102FD000306A800706D4FEF787FF401BB842F7D956
:102FE00037E000BFB8F1000F7FF4D5AEF06920F0F4
:102FF0008050F061CFE600BF306820F48030306050
:10300000306820F480203060FEF76EFF054600BF78
:10301000306880037FF59DAEFEF766FF401B642895
:103020004FF00300F4D9CCE6306840F480203060E3
:10303000306840F480303060FEF756FF054600BF30
:10304000306880033FF585AEFEF74EFF401B6428D5
:10305000F6D9032002B0BDE8F08100BF206AB0F5C8
:10306000803F05D17168A26821F40031114371607D
:103070007168626A21F47411114308437060012081
:103080003866FEF731FF0446306880013FF598AEA0
:10309000FEF72AFF001B02284FF00300F4D990E648
:1030A000411E0020B0EB116F1CBF012070474EF293
:1030B0001002CEF2000251604EF62351CEF2000112
:1030C000F0230B70072190601160704710B590F8E5
:1030D0003C20012A4FF0020233D080F83D200268E4
:1030E000D2F804E0D2F808C00C682EF07003234335
:1030F00040F2FF74C4F20004A24253600ADCB2F151
:10310000804F13D040F20043C4F200039A420DD026
:1031100011E000BF42F60043C4F201039A4205D019
:1031200040F60003C4F200039A4204D149682CF02F
:103130008003194391600121002280F83D1080F83E
:103140003C20104610BD0000002804BF012070473D
:1031500010B5044690F83D0028B9002084F83C00E2
:10316000204600F067F8022084F83D00206840F215
:10317000FF730268C4F2000342F6004C9842C4F2A6
:10318000010C15DCB0F1804F1AD040F20041C4F2BE
:103190000001884214D0984218DCB0F1804F1DD055
:1031A00040F20041C4F20001884217D01AE000BF8B
:1031B000604505D040F60001C4F200018842EAD122
:1031C000A16822F070020A439842E6DD604505D00E
:1031D00040F60001C4F20001884203D1216922F4C3
:1031E00040720A43A36922F08001D4F804E0E26847
:1031F000194360450160C262C0F828E002D16169EC
:10320000CCF8301001214161002084F8461084F888
:103210003E1084F83F1084F8401084F8411084F880
:10322000421084F8431084F8441084F8451084F860
:103230003D1010BD81B0006842F60041C4F20101AA
:10324000884201D001B0704741F21800C4F2020078
:10325000016841F400610160006800F400600090C2
:10326000009801B07047000090F83D1001291CBF84
:1032700001207047022180F83D10006840F2FF7184
:10328000C4F20001884209DCB0F1804F12D040F254
:103290000041C4F2000188420CD012E042F6004125
:1032A000C4F20101884205D040F60001C4F20001D9
:1032B000884206D1816801F00701062904BF002079
:1032C0007047016841F00101016000207047000073
:1032D0000146006841F21113026A1A4204D0012229
:1032E000002081F83D207047026A40F244431A42B0
:1032F000F5D1026822F0010202600122002081F86B
:103300003D20704780B590F83C20012A4FF0020222
:1033100000F0BF8080F83D20D0F800C04FF67772F3
:10332000DCF8083023EA0202CCF808200B683F2BB7
:103330001CDD5F2B20DD602B50D0B3F5005F6DD01E
:10334000702B40F0A080D1E901E3C968DCF80820C7
:1033500043EA0E0322F47F4243EA01211143CCF8F1
:103360000810DCF8081041F077018AE01F2B29DCF7
:1033700063B3102B2AD086E0402B63D0502B40F053
:103380008280D1F804E0C968DCF82030DCF8202025
:1033900022F00102CCF82020DCF8182022F0F00204
:1033A00042EA011123F00A0242EA0E02CCF8181098
:1033B000CCF82020DCF8081041F0570121F0200162
:1033C0005FE000BF202B01D0302B5CD1DCF808106F
:1033D00021F07001194341F0070152E0D1F804E0F7
:1033E000C968DCF8203023F01003CCF82030DCF87A
:1033F0001830DCF8202023F4704322F0A00243EAC6
:10340000013142EA0E12CCF81810CCF82020DCF87A
:10341000081041F0670121F0100132E0D1E901E329
:10342000C968DCF8082043EA0E0322F47F4243EA2D
:1034300001211143CCF80810DCF8081041F4804158
:103440001FE000BFD1F804E0C968DCF82030DCF8E8
:10345000202022F00102CCF82020DCF8182022F0F5
:10346000F00242EA011123F00A0242EA0E02CCF80D
:103470001810CCF82020DCF8081041F0470121F0AA
:103480003001CCF808100121002280F83D1080F8AE
:103490003C20104680BD00007047000070470000CF
:1034A000B0B582B0026805461068D368546900F070
:1034B0002F01202903F0200106D129B1284602B0AE
:1034C000BDE8B04000F026BB5FEA007C1EBF04F000
:1034D000010E03F4907414EB0E0453D1296B0129EF
:1034E00005D110F0100118BF13F0100136D10106FC
:1034F00022D513F080011FD095F83D0021283FD13F
:10350000A868B0F5805F03D12869002800F0F88032
:10351000286A411C296200785060E88C0138010457
:10352000E8842DD1D06820F08000D060D06840F0D1
:103530004000D06002B0B0BD400621D513F040007D
:103540001ED0D068202120F04000D060284685F8A9
:103550003D1002B0BDE8B04000F0C6BA00200190B6
:10356000106801905068019001985069400611D48C
:10357000A88DE98DEB8D002B18BF884240F0A68006
:1035800002B0B0BDC40718BF13F480732CD1430739
:1035900030D436E0A86B01684B689CB2002CEFD0A9
:1035A000A98D8C42ECD2EB858369202B17D0D16892
:1035B00021F48071D160516921F00101516151699B
:1035C00021F040015161202185F83E10002129633E
:1035D000D16821F01001D160FEF7DEFAA98DE88DE7
:1035E000081A81B2284685E02B6C43F001032B6456
:1035F000430706D5BEF1000F03D02B6C43F0020346
:103600002B64830706D5BEF1000F03D02B6C43F06B
:1036100004032B64BCF1000F09D541EA0E03B3FA91
:1036200083F35B0903D12B6C43F008032B642B6CF1
:10363000002BA5D010F0200018BF002903D0284689
:1036400000F068FA2A685069296C00F0400001F027
:10365000080140182CD0D06820F49070D0605069D8
:1036600020F001005061286B012803D1D06820F0C0
:103670001000D060202085F83E00002028635069AB
:1036800040061DD5506920F040005061A86BB8B1CC
:1036900043F60931C0F600014163FEF7A1FA0028A4
:1036A0003FF46EAFA86B416B02B0BDE8B040084775
:1036B0002846FFF7F3FE0020286402B0B0BD00BF2B
:1036C000284602B0BDE8B040FFF7E8BED368401A14
:1036D00023F49073D360536981B223F001035361E3
:1036E000202385F83E3000232B63D368284623F03F
:1036F0001003D36002B0BDE8B040FFF7CDBE00BFFD
:10370000286A30F8021B6FF35F215160286204E7DA
:10371000002804BF0120704710B5044690F83D0012
:1037200028B9002084F83C00204600F061F82420ED
:1037300084F83D002068D4E90212C36823F40053E2
:10374000C360036923F440531A430261D4E904239C
:103750001143C268194341F20C639A431143C1609B
:103760004169A26921F44071114343F60002C4F299
:1037700001029042416103D0FFF790FA02E000BFDE
:10378000FFF7A0FA6268192148439100B0FBF1F0FD
:1037900048F21F51C5F2EB11A0FB01235A094FF665
:1037A0009C73C0F6FF7302FB0300322303EB00108F
:1037B000A0FB0101F02303EA5113206803EB02127E
:1037C000C1F3431111448160016921F49041016109
:1037D000416921F02A014161C16841F40051C16091
:1037E00000202021206484F83D1084F83E1010BD94
:1037F00070B586B040F60004C4F20104006804F518
:10380000405100268842049602D006B070BD00BF29
:1038100041F21800C4F20200016802AD41F4804197
:103820000160016801F4804101910199016841F052
:10383000040101600068294600F00400019001982D
:103840004FF4007002900220039003200590204660
:10385000FEF730FA4FF48060CDE902062046294693
:103860000496FEF727FA252001210022FEF7FCFF2F
:103870002520FEF7E5FF06B070BD0000034690F876
:103880003E0020280AD100294FF0010018BF002A6D
:1038900000D1704793F83C00012801D10220704705
:1038A00000201863996222219A85DA85186483F8CA
:1038B0003E10196883F83C00CA6842F48072CA60FE
:1038C0004A6942F001024A61CA6842F02002CA60B5
:1038D0007047000080B540F2D411C2F200010068C8
:1038E0000968884218BF80BD40F2880CC2F2000C03
:1038F0009CF800109CF8012040F2D40EC2F2000E99
:103900000EF801204A1CD0B20EEB000111F8013C68
:103910008CF800204B2B4FF000020EF8002006D14F
:1039200011F8020C4F2804BF00208CF8000040F270
:10393000D4100CF10101C2F200000122BDE8804068
:10394000FFF79CBF2DE9F041044690F83D00202888
:103950000ED10D4600294FF0010000F08E80164672
:10396000002A08BFBDE8F08194F83C00012803D18B
:103970000220BDE8F08100BF012084F83C00002057
:1039800020642120984684F83D00FEF7ADFAA68415
:10399000E684A1680646B1F5805F03D1206900285E
:1039A00000F0A0802F460025002084F83C00E08C29
:1039B000E0B118F101001BD0B8F1000F60D1206810
:1039C0000BE000BF35F8021B00276FF35F21416059
:1039D000E18C0139E184E18C51B3016809066DD5B0
:1039E000002FEFD017F8011BF1E700BF20681FE0A0
:1039F000206802E00168090609D40168090606D4B6
:103A0000016809065CBF01685FEA0161F2D51FB178
:103A100017F8011B05E000BF35F8021B00276FF304
:103A20005F214160E18C0139E184E18C0029E4D11E
:103A3000016849061DD4B8F1000F3FD018F101010B
:103A40000ED10168490614D4016849065CBF0168BB
:103A50005FEA41610DD401684906F2D509E000BF73
:103A6000FEF742FA811B2068414527D800684006CE
:103A7000F6D5202084F83D000020BDE8F08100BF8D
:103A8000206800BF0168090606D4FEF72DFA811BE5
:103A900020684145F6D911E017B117F8011B04E081
:103AA00035F8021B00276FF35F214160E18C01397B
:103AB000E184E18C0029E5D1BAE700BFC16821F4B7
:103AC000D071C160416921F001014161202084F879
:103AD0003D0084F83E00002084F83C000320BDE84F
:103AE000F08100BF00275FE770470000FEE700009D
:103AF000FEE70000FEE7000070470000704700008E
:103B0000FEF736BE70470000406A0021C185C184BF
:103B1000FFF7C4BC81B090F83E10222921D1836800
:103B20000246B3F5805F09D152F8281F52F8183CBD
:103B3000002B3FD003685B680AE000BF52F8281FE3
:103B400013B90369002BF5D003685B6803F07F03AA
:103B50000B70116801311160C18D01390A04C185F2
:103B600002D001B0704700BF0168CA6822F020028D
:103B7000CA60CA6822F48072CA604A6922F00102EF
:103B80004A61202280F83E20026B012A1AD10022CD
:103B90000263CB6823F01003CB600B68DB0605D50E
:103BA00000920A680092496800910099818D01B0E5
:103BB000FFF772BC026852686FF35F2221F8022B94
:103BC0008162C9E701B0FFF785BE000040F2D41062
:103BD000C2F20000FFF764BCFEE7000080B582B0CF
:103BE00040F2780148F68C02C2F20001C0F60C02E5
:103BF0004868097801924FF0C80C01AA0423CDF857
:103C000000C0FEF747FB02B080BD000080B582B067
:103C100040F278014CF6CC02C2F20001C0F60C0270
:103C20004868097801924FF0C80C01AA0423CDF826
:103C300000C0FEF72FFB02B080BD0000F0B583B0DE
:103C400004463220FEF722F840F27805C2F2000561
:103C500020464E2105224FF4FA736C604E24FEF785
:103C600005FA68B168687E2105224FF4FA737E2454
:103C7000FEF7FCF920B10024204603B0F0BD00BFE0
:103C80002D202C70FEF702F843F63C07686829786F
:103C9000C0F60C07C82602AA042302970096FEF776
:103CA000F9FA0520FDF7F2FF6868297802AA0423D3
:103CB00002970096FEF7EEFA01200124FDF7E6FFD9
:103CC0006868297802AA042302970096FEF7E2FAB0
:103CD0000820FDF7DBFF42F62C02C0F60C026868F4
:103CE0002978029202AA04230096FEF7D3FA08204C
:103CF000FDF7CCFF42F62C02C8F68C0268682978E2
:103D0000029202AA04230096FEF7C4FA0120FDF7EE
:103D1000BDFF40F60C02C8F68C0268682978029252
:103D200002AA04230096FEF7B5FA0120FDF7AEFFC4
:103D300040F60C02C1F61C0268682978029202AAB9
:103D400004230096FEF7A6FA0320FDF79FFF40F636
:103D50000C02C6F66C0268682978029202AA042353
:103D60000096FEF797FA0120FDF790FF40F60C024F
:103D7000CCF6CC0268682978029202AA0423009645
:103D8000FEF788FA0320FDF781FF204603B0F0BD5F
:103D900083B02DE9F04388B005460FA802AC0EC0F1
:103DA0000FAA204629460192FCF764FA9DF8080004
:103DB00080B340F278064FF0FF35C2F200064FF0B4
:103DC000C8080DF11C0900BF6019407804230101E7
:103DD00020F00F0000F10D0209308DF81D0001F1F7
:103DE0000D008DF81C208DF81E0001F1090270688D
:103DF00031788DF81F204A466F1CCDF80080FEF701
:103E000049FA2046FCF722FB0E2F03D8A91C884252
:103E10003D46D9D808B0BDE8F04303B07047000074
:103E200094B0FEF7B3FC00240120CDE90F44CDE9A6
:103E30000D440A900E904FF4E0104FF480310225AB
:103E400013900AA80394CDE90144CDE90B14CDE900
:103E50001151FEF74BFF28B1EFF3108072B600BF8F
:103E6000FEE700BF0F20CDE904054FF48060CDE9E7
:103E7000070404A802210694FEF730FE20B1EFF3F8
:103E8000108072B6FEE700BF4FF40040022502909A
:103E900068460095FEF79CFD20B1EFF3108072B6E6
:103EA000FEE700BF41F21800C4F20200016840F6CC
:103EB000000441F0200101600168C4F2010401F036
:103EC00020010A910A990168002241F00401016071
:103ED0000168E22701F004010A910A9901680026AD
:103EE00041F0080101600068E22100F008000A903A
:103EF0000A982046FDF7F2FF0D950AAD0A970127B3
:103F000020462946CDE90B76FDF7D4FE4FF46040FC
:103F10000AA9C1C104F580602946FDF7CBFE40F235
:103F20003810A4F53441C2F2000048F2A0624FF408
:103F30008043C0F2010280E84600C0E90363C0E9A3
:103F40000566C0E90766FDF7D5FF28B1EFF31080DD
:103F500072B600BFFEE700BF40F2880BC2F2000B52
:103F600004F5E051584640F81C1F4FF460210673D9
:103F70000675C161C0E901660761FDF72DFD28B135
:103F8000EFF3108072B600BFFEE700BF00260120ED
:103F90000BF11C05CDE90B060AA928460A96FDF788
:103FA00055FC28B1EFF3108072B600BFFEE700BFEA
:103FB00040F60004C4F2010440F2D41004F540516C
:103FC000C2F200000C234FF4E13280E84600C0E961
:103FD0000366C0E90536C661FFF79AFB20B1EFF32F
:103FE000108072B6FEE700BF40F28C10002104F58D
:103FF0001052C2F2000047234FF6FF770D91CDE932
:104000000B11CDE90411C0E90023C0E90217C0E992
:1040100004118161FFF798F820B1EFF3108072B6B8
:10402000FEE700BF4FF480500A9040F28C10C2F2BD
:1040300000000AA92646FFF765F928B1EFF31080C2
:1040400072B600BFFEE700BF40F28C10C2F2000063
:1040500004A9FFF73BF828B1EFF3108072B600BF58
:10406000FEE700BF2846FDF767FB40F2D4100BF1D6
:104070000101C2F200000122FFF700FC40F23810FB
:10408000C2F20000FFF7DAFD40F2000845F23755B2
:1040900045F22C5440F28C19C2F200080AAFC0F667
:1040A0000005C0F600040DF1100AC2F2000900BFBD
:1040B000FDF71AFFDBF80410D8F80020401A9042F0
:1040C00014D2484631460222FDF780FA50B13846F4
:1040D00049463246022300F079F80AAA07CA0BF1D2
:1040E000100307C3FDF700FFCBF80400FDF7FCFE4B
:1040F000DBF80C10D8F80420401A904239D2DBF8D3
:10410000100000F0D5FE02460B4638462946FCF763
:10411000C3F8DBF8180000F0CBFE02460B46504611
:104120002146FCF7B9F838465146FCF7AEF9FCF7E2
:104130008DF926462C4640F2D415C2F2000582B213
:10414000284639464FF47A73FFF7FCFB45F22A51B3
:1041500028462546344640F60006C0F600010222F5
:104160006423C4F20106FFF7EDFBFDF7BDFECBF8BB
:104170000C00FDF7B9FEDBF80810D8F80820401A4B
:10418000904295D2DBF8100000F092FE02460B46FA
:1041900038462946FCF780F8DBF8180000F088FE66
:1041A00002460B4650462146FCF776F8FFF716FD0F
:1041B0003846FFF7EDFDFFF729FD5046FFF7E8FD14
:1041C000FDF792FECBF8080072E700002DE9F04FF2
:1041D00081B00E46824600204FF07E511546CAE956
:1041E0000010CAF80800304611461A461F46FDF76F
:1041F00085F98046304629463A46FDF77FF98146E3
:10420000304629463A46FDF779F983463046294635
:104210003A46FDF773F90446304629463A46FDF71B
:104220006DF909EB080159442144814238D15846BF
:1042300000F08EFF0546204600F0D2FD0027C4F2B4
:10424000240700223B4600F071FC00F03DFC0146D3
:10425000284600F059FE0021C4F21011CAF80000EF
:1042600000F08AFF0021C4F2A00100F0AFFE4FF081
:10427000844100F049FECAF80400404600F068FF9F
:104280000446484600F0ACFD00223B4600F04EFCE0
:1042900000F01AFC0146204600F036FECAF808007D
:1042A00001B0BDE8F08F5FEA400C08BF91F0000F4D
:1042B0004FEA8C234FEAC12243EA51514FEA1C5086
:1042C00018BF00F5F0404FEA300018BF41F0004140
:1042D0005FEA6C5C00F02980BCF1FF3F08BF40F052
:1042E00080407047130C06BF12044FF0100C4FF0C3
:1042F000000C130E04BF12020CF1080C130F04BFC4
:1043000012010CF1040C930F04BF92000CF1020C8B
:10431000D30F04BF52000CF1010C11464FF0000204
:10432000A0F11F00A0EB0C00704711F0004F08BF78
:10433000704731F000413FF4D5AF0B0C06BF0904C4
:104340004FF0100C4FF0000C0B0E04BF09020CF1E3
:10435000080C0B0F04BF09010CF1040C8B0F04BFF8
:1043600089000CF1020CCB0F04BF49000CF1010CC9
:10437000CCF1200322FA03F341EA030102FA0CF222
:10438000A0EB0C0000F101007047000023F07F4714
:1043900020F07F4C80EA030000F00040ACEB070304
:1043A00003F57C5303F1FF032DE9804909B44FEA7B
:1043B000144324EA03484FEA154B25EA0B4E0FF24B
:1043C000042606EB13273E7803FB0667C7F50007B4
:1043D00007FB06F64FEAD64606F102064FEA5437C7
:1043E00007FB066CCCF1005C4FEA1C472CEA074C3B
:1043F0000CFB06F507FB06F404EB15464FEA961690
:1044000049085FEA320234BF00204FF000404FEA13
:10441000D13706FB07FC4FEA1C4C0CFB0BF7D21BF9
:1044200003FB0CF761EB07010CFB0EF7B0EB074049
:1044300072EB17420CFB08F734BFA2EB0742B2EB5A
:10444000074261EB17414FEA0C444FEA910706FB24
:1044500007FC4FEA1C4C0CFB0BF7B0EBC74072EBB0
:10446000573203FB0CF734BFA2EBC742B2EBC74293
:1044700061EB57310CFB0EF7B0EBC70072EB5772D4
:104480000CFB08F734BFA2EBC702B2EBC70261EB2B
:1044900057714FEA816141EA92114FEA826242EA22
:1044A00090124FEA806004EBCC04039F4FEAD137AF
:1044B00006FB07FC4FEA1C4C0CFB0BF7D21B03FB63
:1044C0000CF761EB07010CFB0EF7B0EB074072EB4A
:1044D00017420CFB08F734BFA2EB0742B2EB0742CE
:1044E00061EB17414FEA8C5504EB9C244FEA91078E
:1044F00006FB07FC4FEA1C4C0CFB0BF7B0EBC7406C
:1045000072EB573203FB0CF734BFA2EBC742B2EB9E
:10451000C74261EB57310CFB0EF7B0EBC70072EBF3
:1045200057720CFB08F734BFA2EBC702B2EBC7020D
:1045300061EB57714FEA816141EA92114FEA826261
:1045400042EA90124FEA806015EB4C2544F10004DA
:104550004FEAD13706FB07FC4FEA1C4C0CFB0BF76C
:10456000D21B03FB0CF761EB07010CFB0EF7B0EB62
:10457000074072EB17420CFB08F734BFA2EB07426F
:10458000B2EB074261EB17414FEA813141EA9241B8
:104590004FEA823242EA90424FEA80304FEA0C768C
:1045A00015EB1C1544F1000448EA03434EEA0B489E
:1045B0004FF0000EB2EB080C71EB030724BF62460C
:1045C00039464EEB0E0E4FF0000B00185241494198
:1045D0004BEB0B0BB2EB080C71EB03077BF1000B01
:1045E00024BF624639464EEB0E0E4FF0000B00180A
:1045F000524149414BEB0B0BB2EB080C71EB03073B
:104600007BF1000B24BF624639464EEB0E0E51EA99
:10461000020718BF46F0010616EB0E7655F10002B0
:1046200054F1000103D5BDE88901BDE80088BDE86B
:104630008901BDE80048B619524141EB0101A3F1DF
:104640000103704780807F7E7D7C7B7A79787776E6
:1046500076757473727171706F6E6E6D6C6C6B6A5F
:104660006A696868676666656464636362616160FD
:10467000605F5F5E5E5D5D5C5C5B5B5A5A5959587A
:1046800058575756565555555454535352525251E4
:10469000515050504F4F4F4E4E4D4D4D4C4C4C4B3A
:1046A0004B4B4A4A4A494949484848474747474681
:1046B00046464545454444444443434343424242BD
:1046C000424141419C46002B30D477002BD04FEA29
:1046D00037071CB503B44FF010004FF01001BAF1CA
:1046E000000F06D0BCF1000FDCBF40F0080040F026
:1046F00008014FF000000FBCBDE810400BF1010BAA
:10470000BBF1010F08BF5FEA170722BF12F10102D8
:1047100011F101014FF0004143F1000300F00040AE
:1047200043EA00007047F9D35708D0E746EA064647
:104730004FEA164613F1400F1FDD13F1200FDFBFC4
:1047400016430A46002120335B42BED0C3F1200746
:1047500046EA06464FEA164602FA07F746EA070611
:1047600022FA03F2C3F1200701FA07F742EA07022F
:1047700021FA03F14FF00003A7E746EA020646EAF2
:1047800006464FEA164646EA0106BCBF46EA06461A
:10479000360C4FF000034FF000024FF0000194E799
:1047A0002DE9804C70B49A46934691E8380007C8CA
:1047B00031EA400C48BF34EA430C03D5FFF7E6FD6D
:1047C000FFF780FFF0BCBDE8008C2DE9804C70B491
:1047D0009A46934691E8380007C810F0804F08BF0A
:1047E00013F0804F03D100F005F8FFF76BFFF0BC2A
:1047F000BDE8008C20F07F4723F07F4C80EA030067
:1048000000F0004007EB0C03A3F57C53A3F1FE037B
:1048100092F0000F00F0B38095F0000F00F0778069
:104820002DE901494FEA114021EA00484FEA1446B8
:1048300024EA064700FB06FC08FB06F607FB08F81F
:1048400018EB06484CEB164C00FB07F718EB074833
:104850004CEB17404FEA124B22EA0B4E4FEA15463B
:1048600025EA06470BFB06FC0EFB06F607FB0EFED1
:104870001EEB064E4CEB164C0BFB07F71EEB074EE0
:104880004CEB174B18EB0B0840F1000018EB0E0B2C
:1048900058EB000840F100008F1A4FF000014FF074
:1048A00000063CBFC943661B14BFB5EB040C0021D6
:1048B0003CBFC943F61B4FEA174427EA04454FEAB9
:1048C0001C472CEA074C04FB076205FB07F70CFBAF
:1048D00005F616EB074642EB174204FB0CFC16EB01
:1048E0000C4642EB1C421BEB060658EB0202414110
:1048F0004EEA8E0E46EA9E0601D5BDE80189B6193C
:10490000524141EB0101A3F10103BDE801894FEAE6
:10491000144524EA05464FEA114721EA074C05FBF6
:1049200007F406FB07F70CFB06F111EB074144EB1C
:10493000174405FB0CFC11EB0C4144EB1C444FEA03
:10494000124722EA074C05FB07F206FB07F70CFBB0
:1049500006F616EB074642EB174205FB0CFC16EB7E
:104960000C4642EB1C456A1854F1000148BF7047E1
:10497000B619524141EB0101A3F10103704795F0D3
:10498000000F37D04FEA114221EA02464FEA14479E
:1049900024EA074C02FB07F106FB07F70CFB06F4C1
:1049A00014EB074441EB174102FB0CFC14EB0C44E5
:1049B00041EB1C414FEA154725EA074C02FB07F57E
:1049C00006FB07F70CFB06F616EB074645EB17450B
:1049D00002FB0CFC16EB0C4645EB1C42121951F184
:1049E000000148BF7047B619524141EB0101A3F1E4
:1049F000010370474FEA144524EA05464FEA114780
:104A000021EA074C05FB07F106FB07F70CFB06F252
:104A100012EB074241EB174105FB0CFC12EB0C4279
:104A200051EB1C414FF0000648BF7047921841EB14
:104A30000101A3F101037047490050EAC12018BFEA
:104A400004204A0D18BF40F0010040F2FF72B2EBA3
:104A5000515F08BF40F00200012808BF05207047E1
:104A600030380A2801D2012070470020704700002A
:104A700010B500290AD00878002807D005487844E6
:104A8000FCF76CFC002801D0002010BD02487844DF
:104A900010BD0000E60A0000DE0A000010B5002983
:104AA0000AD00878002807D005487844FCF756FC5F
:104AB000002801D0002010BD0248784410BD00003D
:104AC000D60A0000CE0A000021F0004201F00043A7
:104AD000A2F16052B2F5801F28BFD2F17F6C0BD9D2
:104AE0005FEA001C43EAC20242EB507018BF7047F5
:104AF00028BF20F001007047B2F5801FBCBF1846E8
:104B000070474FEA410C1CF5001F02D2084600F026
:104B1000FABB70B500F077F900000089FFF7F6BF27
:104B20004FF00040A0F58000704700002DE9C04123
:104B300030B4DFF8A4C23CEA111418BF3CEA1314E5
:104B400000F0ED801CEA111481EA030544EAD574F3
:104B500018BF1CEA131500F0C880A4EB050404F18B
:104B60007F7404F500344FF0004545EAC12145EA61
:104B7000C32341EA505143EA52534FEAC0204FEA5F
:104B8000C222994208BF904200F09D804FEA13650F
:104B90000FF24416765D4FEA134506FB05F7C7F1A1
:104BA000807706FB07F74FEAD737A7FB0368764203
:104BB000A7FB06CEC8F5803838BFA8F1010807FB6F
:104BC00008E6A6FB028C4FF0000EE6FB03CEDCF1FC
:104BD000000CCEF1004E38BFAEF1010EA6FB0C5812
:104BE0004FF00007E6FB0E87A1FB08C6A0FB07CE2F
:104BF00016EB0E064FF0000545F10005E1FB0765D9
:104C000015F1E04E7EBFA4F580345FEA46066D41A3
:104C100016F1800745F100054FEA172747EA0567B7
:104C20004FEA15254FEA0666A6F1DE46B6F1805F2B
:104C300020D9384605EBC47124F0010C01EB0C11AE
:104C4000BCF1FE6F02D8F0BCBDE8008124425CBF1D
:104C500001F5801E9EEAC47F02D4F0BCBDE800814D
:104C6000244200F13980A1F1C041F0BCBDE800410F
:104C700000F017B94FEAD02040EA41504FEAD12165
:104C80004FEAD22242EA43524FEAD323A7FB0286DD
:104C900007FB036605FB02661EEA0E0F58BFA6EB74
:104CA0000056B6EB00564FEA520E4EEAC37E18EBA2
:104CB0000E0E56EB530EBCD518EB02085E417F1C5E
:104CC00055F10005B5E74FF480154FF000074FF0A0
:104CD00000064FF00008ACE701F1C04101F00041CF
:104CE0004FF00000F0BCBDE800810CEA131511EA9A
:104CF0000C1F00D00CE013EA0C1F00F026804FF0D0
:104D0000000081EA030101F00041F0BCBDE8008130
:104D1000F0BCBDE8004181EA030100F0C2B8F0BC7C
:104D2000BDE8004170B500F06EF800BF097EFC3EA2
:104D300000F007B84FF0000081EA030101F00041E4
:104D4000704781EA030100F0ACB8F0BCBDE8004157
:104D500022494FF000007047FFFDFBF9F7F5F4F230
:104D6000F0EEEDEBE9E8E6E4E3E1E0DEDDDBDAD806
:104D7000D7D5D4D3D1D0CFCDCCCBCAC8C7C6C5C464
:104D8000C2C1C0BFBEBDBCBBBAB9B8B7B6B5B4B37B
:104D9000B2B1B0AFAEADACABAAA9A8A8A7A6A5A466
:104DA000A3A3A2A1A09F9F9E9D9C9C9B9A9999982A
:104DB0009797969595949393929191908F8F8E8ECD
:104DC0008D8C8C8B8B8A898988888787868585845A
:104DD00084838382828181800000FF070000F87F46
:104DE000B0FA80F310FA03F10AD0C3F11D0303F502
:104DF00080634FEA03524FEA415002EBD1217047E2
:104E00004FF0000070470EF1020E2EF0030E5EF818
:104E1000046B364205D4012A43EB030515F5001F48
:104E200012D8012841EB010C1CF5001F0CD80ED143
:104E30004FEAD17C0CEB4C0C0CF1020C15F5001F69
:104E400008BF4CEBD37C04E04FF0080C01E04FEAC4
:104E5000D37C0CEB4C0526FA05F606F00706B6F1F6
:104E6000040C06D20EEB860CBDE870404CF0010C31
:104E70006047DFE80CF0090B02024FF00041A1F59A
:104E800000214FF0000070BD19461046012851EB7B
:104E9000010418BFD4F5001484BF002001F00041C4
:104EA00070BD0808A0F500114FEA310170470000FD
:104EB00043004FEAD30C4FEA3C0C43401FBF40076E
:104EC0000CF1605113F0FE4F70471CF0006F03D1DE
:104ED0000CF00041002070470CF0004343EA507092
:104EE00040EACC0010B500F0C8F900BF0000009205
:104EF0004FEA0001FFF7D5BF4FF00041A1F50021B7
:104F00004FF000007047000090EA010F48BF81F0A9
:104F1000004100F10482421A3CBF801A89184FEA0E
:104F2000D052A2EBD1534FF07F4C1CEA410F18BF77
:104F30009CEA026F00F03B804FF0004C4CEA0020EE
:104F40004CEA012121FA03FC10EB0C0C1ED202F1F9
:104F5000FF325FEA1C2040EBC25038BF70471CF0A4
:104F60007F0F4FEA400C18BFBCF17F4F38BF70472E
:104F7000C3F12003994008BF20F00100BCF17F4F2E
:104F800038BF7047A0F1C04000F0BDB94FEA3C0007
:104F9000000A40EBC25028BF1CF0FF0F4FEA400C44
:104FA000E6D018BFBCF17F4F38BF7047EAE79CEAF4
:104FB000026F05D010EA5C0F08BF00F00040704798
:104FC00010B500F05AF900BF64FBBE3E4FF47F0CF1
:104FD0001CEAD0121EBF1CEAD11392EA0C0F93EA0E
:104FE0000C0F00F0858090EA010F48BF42F48072F8
:104FF00040F4000C41F400002CF07F4120F07F4091
:1050000000B5A2EB030281420FF2081CACEB504E3C
:105010009EF800E0C0F100004FEA4E0E00FB0EFCCF
:1050200038BF49004FEA2C1C0CFB0EF34FEACE1E92
:105030000EEB635E4FEA112C0EFB0CFC4FEAC12114
:105040004FEA1C5300FB031102F5FA024FEA112C40
:105050000EFB0CFC4FEA01314FEADC4C00FB0C115B
:1050600042EB2242C14228BF09184CEB03335DF8E2
:1050700004EB10EB410143EBC250B2F57C0F38BF9B
:10508000704729D512F0F00F1CBF00F1C04000F0AE
:1050900000407047008182838485868788898B8C55
:1050A0008D8E8F919293959697999A9C9D9FA0A291
:1050B000A3A5A7A8AAACAEB0B2B3B5B7B9BCBEC0E1
:1050C000C2C5C7C9CCCED1D4D7D9DCDFE2E6E9EC82
:1050D000F0F3F7FAFE0000004FEA400C0CF1807C80
:1050E000BCF17E4F28BF7047B0F1C04000F00BB953
:1050F0000CEAD11390EA010F48BF42F48072624576
:1051000038BF634507D213F47F0F16D080EA010041
:1051100000F00040704710B500F0AFF8097EFC3E8B
:1051200000F005B880EA010000F00040704780EA16
:10513000010000F0004000F0E6B812F47F0F04BF59
:105140000248704780EA010000F0DDB80000C07F2F
:10515000B0FA80F310FA03F2C3F19D030AD0D90527
:1051600001EB1220530638BF704700F1010008BF61
:1051700020F00100704700004FF47F0C1CEAD012B1
:105180001EBF1CEAD11392EA0C0F93EA0C0F00F039
:10519000478090EA010F48BF42F480724FF0004C04
:1051A0004CEA00204CEA012102EB0302A0FB0113B0
:1051B000A2F50002002918BF43F001035B0028BFDD
:1051C0004FEA330342EB22425FEA132C4CEBC2500E
:1051D0002EBFBCEB436FB2F57C0F70474FEA036CF8
:1051E000BCF1004F08BF20F00100B2F57C0F38BFC2
:1051F00070470BD582F0FF0212F5803FC8BF7047A1
:1052000000F1C040D8BF00F00040704700F5000C2E
:105210005FEA4C0C48BF7047B0F1C04000F073B873
:105220000CEAD11390EA010F48BF42F48072624544
:1052300038BF634504D280EA010000F000407047A7
:1052400010B500F01AF800BF8900013E00F007B861
:1052500000F009B85FEA410C5FEA1C6C08D080EAF4
:10526000010000F050B85FEA400C5FEA1C6CF6D118
:105270004FF00040A0F5800070470EF1020E2EF0B6
:10528000030E5EF8044B244204D44FEA4102B2F10B
:105290007F4F11D84FEA4003B3F17F4F0CD80ED1A6
:1052A0004FEAD07C0CEB4C0C0CF1020CB2F17F4FAE
:1052B00008BF4CEBD17C04E04FF0080C01E04FEA52
:1052C000D17C0CEB4C0324FA03F404F00704B4F192
:1052D000040C06D20EEB840CBDE810404CF0010C1F
:1052E0006047DFE80CF0070802024FF00040A0F52D
:1052F000800010BD0846420018BFD2F1807288BFFE
:1053000000F0004010BDFF2141EAD050C0057047B9
:1053100090EA010F48BF81F000413FF5FCAD421A11
:1053200004D882F00042A0EB020011444FEAD052B0
:10533000A2EBD1534FF07F4C1CEA410F18BF9CEAFF
:10534000026F4AD04FF0004C4CEA00204CEA012199
:1053500021FA03FCB0EB0C0C0FD412F0FE0F36D088
:105360005FEA4C001DD5001240EBC25038BF7047B9
:105370001CF03F0F18BF70470BE05FEA1C20A2F142
:10538000010240EBC25038BF70471CF07F0F18BFBE
:105390007047C3F12003994014BF401E20F0010064
:1053A00070474FEA1223800808BF7047B0FA80FCAC
:1053B000A2EB0C02CCF1280C60FA0CF093EA122F4D
:1053C00004BF00EBC25070474FEAC3707047130A26
:1053D0005FEADC1008BF7047F6E79CEA026F04D072
:1053E00010EA5C0F08BF0020704710B5FFF745FFBB
:1053F00040DFF63E81F000407047FBF7DFB9FBF776
:10540000F1BC0400000800000000000000020001E0
:1054100000001000000000000000000030313233B6
:1054200034353637383941424344454640305800D8
:10543000303132333435363738396162636465660A
:1054400040307800303132333435363738396162A4
:1054500063646566787000303132333435363738FE
:105460003941424344454658500000000240000084
:10547000000000A00000000005400000000000C87F
:10548000000000000C4000000000409C00000000F4
:10549000194000000020BCBE0000000034400000A5
:1054A000BFC91B8E00000004B5400000504BCFD098
:1054B0006607E2CF010000006C4100003E8251AA65
:1054C000DFEEA73401000000D9420000DCB5A0E205
:1054D0003A301F97FFFFFFFFB4450000FD25A0C82D
:1054E000E9A3C14FFFFFFFFFFF3F00000000008066
:1054F00000000000FF3F00000000008000000000EE
:105500000102000000000000000001020304060781
:105510000809000000000102030402030405060755
:1055200008090A0B0C0D0E0F10100A0048554D49C2
:10553000443D252E31660054454D503D252E3166A3
:105540000000000090560008000000201800000035
:1055500028010008A85600081800002008080000CC
:10556000440100081C00000043000000F8FFFFFF9A
:105570000C0000000E0000000F0000002E000000D4
:105580001001000043000000F8FFFFFF0040404012
:105590004040404040404141414141404040404006
:1055A00040404040404040404040404040050202B2
:1055B0000202020202020202020202020220202071
:1055C00020202020202020020202020202029090CD
:1055D00090909090101010101010101010101010CB
:1055E000101010101010101002020202020288881F
:1055F000888888880808080808080808080808082B
:105600000808080808080808020202024000000012
:10561000000000000000000000000000000000008A
:10562000000000000000000000000000000000007A
:10563000000000000000000000000000000000006A
:10564000000000000000000000000000000000005A
:10565000000000000000000000000000000000004A
:10566000000000000000000000000000000000003A
:10567000000000000000000000000000000000002A
:10568000000000000000000000000000000000001A
:10569000C8000000FA000000FA000000010000004D
:0856A000100000000024F400DA
:04000005080000ED02
:00000001FF
